:020000040000fa
:10000000f0ff0020cd1f0000eb0c0000e90c000009
:1000100000000000000000000000000000000000e0
:10002000000000000000000000000000ed0c0000d7
:100030000000000000000000ed0c0000ed0c0000ce
:10004000ed0c0000ed0c000089100000ed0c00002c
:10005000ed0c0000ed0c0000ed0c0000ed0c0000bc
:10006000ed0c0000ed0c0000ed0c0000ed0c0000ac
:10007000ed0c0000e1170000ed0c0000ed0c00009d
:10008000ed0c0000ed0c0000ed0c0000ed0c00008c
:10009000ed0c0000ed0c0000ed0c0000ed0c00007c
:1000a000ed0c0000ed0c0000ed0c0000ed0c00006c
:1000b000ed0c0000ed0c0000a9160000ed0c000096
:020000040000fa
:1000c000f8b5c046f8bc08bc9e467047c921000080
:1000d000f8b5c046f8bc08bc9e467047a121000098
:020000040000fa
:1000e00001224b08c00130b51b1811420fd00f245c
:1000f0000b4a9b181a7822401a7010221c7822434f
:100100001a70084b0918c91801230b7030bd0f2550
:10011000034c1b191c78ac431c701c78efe7c046dd
:1001200030000041400000414b08c0010d4a1b183f
:1001300010b59b18ca070dd50f241a7822401a70e3
:100140001a78913422431a70074b0918c9180123f1
:100150000b7010bd0f241a78a2431a701c780a2263
:10016000f0e7c0463000004140000041024a938958
:100170009bb2002bfbd170470054004270b50600c3
:10018000002401253300e3402b4209d0064b002018
:10019000e15c1f2902d928002039c9b2fff7a0ff6e
:1001a0000134202ceed170bd24220000f0b50624cd
:1001b0001f4b44431a68002093681c1963888b42c4
:1001c0002dd02dd2c91a126889b29378402b00d154
:1001d00049080120842922d8002005291fd90f258c
:1001e0001527a3881c001e1298042e407e43800f02
:1001f000ba3778431b112b4080195b00c0182c4084
:1002000080b2052c0ed8d3780a4a9b069b0f5b0060
:10021000d3181b8c594389b2884280414042f0bdbb
:10022000591ad0e70130053c80b2e4b2e9e7c04694
:1002300004000020242200000d4a70b5106801253a
:1002400002680c49148806220b885a439c420ad93a
:100250008668b65c06322e4202d101339bb2f5e7c6
:1002600000200b8070bd002301200b80fae7c04600
:10027000040000205c010020f0b587b00390fff778
:1002800075ff0222774c784e238893432380316890
:100290000b689a78812a29d11b889c4600231f006d
:1002a00002939ab294454ad83800fff767ff0025b9
:1002b000029b0122eb40134209d06c4b0020e95c09
:1002c0001f2902d901202039c9b2fff72dff0135be
:1002d000202dedd1029dfff749ff3d4300272780e8
:1002e000fff744ff6761fff741ffa5610c27fff7a8
:1002f0003dff039b5f4333685b68db195b686364a6
:10030000fff734ff33685a4a5b68db599bb2d387e7
:10031000fff72cff326857485368d9190b681b0c3c
:1003200003800623039843439068c01802788388ab
:10033000950710d505220270fc22920314e00c22ce
:100340005a434d680133aa181068029d526805434c
:1003500002951743a5e7d206520fedd143488a7a9a
:1003600028301209825c12040d7a13432d061d43b6
:10037000fff7fcfea5640325fff7f8fe336822694a
:100380005b683d49db195b7a0a401b092b401b0562
:1003900013432361fff7eafe336838495b68db19d2
:1003a0005a7a23882a4012020b4013432380fff716
:1003b000ddfe0721336802265b68df19fa7a2369bc
:1003c0002f4f0a4012043b4013432361fff7cefe38
:1003d0002388334323802b4b5b680293002b38d058
:1003e000fff7c4fea36c1b0e0593fff7bffe236946
:1003f0001b051b0f0393fff7b9fe23889b059b0f7b
:100400000493fff7b3fe2388b3432380fff7aefec8
:100410002379ab431d43edb2fff7a8fe2571fff72b
:10042000a5fe194b25691a68082311780b43137030
:10043000fff79cfe23691f402761144b0095049a27
:1004400003990598029da847fff790fe23881e4355
:100450002680fff78bfe0123227f1343237707b00b
:10046000f0bdc046005400420400002024220000d9
:100470000254004260540042ffffcffffffcffff29
:10048000fffff8ff5c010020000000201054004234
:10049000184b70b51b6800251a6808249378402b08
:1004a00007d00a24802b04d00220812b17d10a24e4
:1004b000032513790f2b13d80f2213400e4a1b026a
:1004c00014401c43fff752fe58230c4e3380fff7b5
:1004d0004dfe3461fff74afe0020094b1d7070bdd0
:1004e0001f2223041b0e93431a00102313431b02e5
:1004f000044ae5e704000020ffe0ffff005400424b
:1005000064540042ff00ffff0b23002802d0024b7f
:100510001860002318007047000000200b230028fb
:1005200002d0024b58600023180070475c01002085
:10053000034b03205a68002a01d0002058607047fe
:100540005c010020f0b5af4b89b01b7a002b00d1c5
:10055000a1e1ad4b1b6804931b6805931b880793af
:10056000aa4b1b6806930023029303936b461a89d8
:10057000079b934205d80222a24b1a72039809b036
:10058000f0bd0625029b06995b00cc5a049b02999c
:100590009b680193029b5d43019b5d1907232e78a5
:1005a000b6081e4005334b4304994968cb180193a4
:1005b000db7a042e00d96de1300001f073fe0500f6
:1005c00013004e012f01e2000f21019a927a0a4096
:1005d000934201d99e1af6b234416c80029b0133da
:1005e0000293c3e71c41a3b2894c6b80af88a3423e
:1005f0002ad9884a9b1832009bb2059989784029ec
:1006000026d15b08002a25d0002f27d0042b29d91a
:1006100003220f2439133811944611403a12224014
:1006200020402740002e4ad10536cf2b01d903297f
:1006300055d1152b5dd90f2a56d1220003295ad046
:100640000131c9b2320056e0e31a9bb20022d4e76e
:10065000002ad9d0704a00269742d7d181232b7027
:10066000733b03932b785a0601d501230ce05bb250
:10067000002b0adb0322059bdb781340934208d151
:10068000ff23019a1372ee3b2b70bf04bf0caf80a7
:10069000a4e7022b07d10f22019b5b7a9343019ab7
:1006a00053720923f0e7012bdfd10f22019b5b7a04
:1006b0001a4030231343019a53720d23e4e70a24ae
:1006c000cf2b01d9002930d1152b3ad9002a33d1ab
:1006d0000022914237d00139c9b2220033e0013102
:1006e000cf3bc9b29bb2a0e70132153bd2b29bb25d
:1006f0009fe70f2aa1d0022b11d90f280ad10f2a68
:1007000000d1cbe00132d2b2300003290bd0022b52
:100710008bd828e00130023bc0b29bb2ebe70f2838
:10072000edd003291fd16146f1e70139cf3bc9b2b2
:100730009bb2c5e72000c3e7013a153bd2b29bb29a
:10074000c2e7002ac4d0022b0bd9002804d1002a0a
:1007500011d11700100006e00138023bc0b29bb275
:10076000f1e70028f3d0090389b212020a431743c4
:10077000000107438be7013ad2b2022bdad80a20f4
:10078000f1e71c41019ba4b21f7aff2f08d17f2300
:10079000019a6c8013722b78012b00d01ee724e0a5
:1007a000002339000120d9400026014201d11e005a
:1007b00008230133dbb2072bf3d921001000fff728
:1007c000f5fc002804d00123b3401f43019b1f7296
:1007d0000123002e08d0013ef6b2b340019a127aee
:1007e0009a43019b1a72d6e72b70094b9c424fd952
:1007f000084be418a4b2052c00d8efe645232b7073
:10080000ece6c0465c010020040000200800002047
:10081000ff01000001feffffff3f00001c41019ba4
:10082000a4b25f7a3e09032e15d021001000fff715
:10083000bdfc00280ad1013601232b700f2336019d
:100840001f40019b3e435e726c80a4e7002ef3d0f4
:10085000013ef6b2f2e70226f0e71c410f26019bab
:10086000a4b25f7a3e4011d021001000fff79efc39
:10087000002806d1013ef6b201232b700f239f43bf
:10088000dfe7032ef8d00136f6b2f7e70126f5e7e9
:100890001c1bafe7fee7032303936fe6032900d198
:1008a00057e7200033e78022f8b5214bd2001a61c8
:1008b0000b265a619a61da61002821d003680c2462
:1008c000198800231d001f009ab291421ad80226ef
:1008d000002d15d038042843fff750fcfff746fce5
:1008e0000023144c2380144b1e7a002e14d1fff7e2
:1008f0003dfc6761fff73afc01230f4aa5611372c3
:100900003000f8bd22005a4346680133b218166819
:10091000526837431543d7e7fff728fc6369002681
:100920001f436761fff722fca3691d43a561e7e749
:10093000004c0042005400425c0100200b230028c0
:1009400002d0024b186000231800704708000020f6
:10095000f8b507000e000b2500294cd000284ad01e
:10096000284c083d237a002b45d0023d042b42d071
:10097000036801355b79013bab423cd8fff7f6fbde
:100980000222214d2b8893432b80204be6601f6071
:10099000fff77efd80221e4bd2051e4eda67bff3a5
:1009a0004f8fbff36f8f0323ab72fff7dffb012283
:1009b0006b7aff2013436b72174b80251a70c0238c
:1009c000c722ed055b00f5503b6892005b7900049f
:1009d0009b05b1580340114801400b43b35000231d
:1009e00035602380fff728fc051e06d104232088ec
:1009f0002372fff741fc2800f8bd02230225237271
:100a0000f9e7c0465c0100200054004204000020c9
:100a100004e100e000e100e07a010020ffff00ffb8
:100a20000b2300280ad003681a8802238a4205d3c0
:100a300004334b4301218268995400231800704706
:100a400010b50b22002813d00368093a1c888c4289
:100a50000ed304324a439b7881688918402b09d110
:100a6000f533ff3300228b800223087803430b7099
:100a7000100010bd803bdbb20222012bf4d8014be9
:100a8000f0e7c04667050000f8b505000b20002917
:100a900079d0002d77d02b68002b74d01a68ae88df
:100aa00014880938a6426ed2374c0138267a042eb3
:100ab00069d052790130013a824264d8334a2161c7
:100ac0001360fff7e5fc0623a9882c684b43a26856
:100ad000a879d3180c22514362680f245218917ad6
:100ae0005b880c40d17a1a18091bc9b292b28a40ad
:100af0001b1a9bb28b40264992b20a80254a9bb2b0
:100b000013800722244c80276379ff0593431a0042
:100b1000042313436371214b214edf67bff34f8fd3
:100b2000bff36f8ffff722fb0323a372fff71efbb8
:100b30000122237a13432372fff718fb0221637a01
:100b4000c7220b436372c023ff205b00f7502b6862
:100b500092001b6800045b79b1589b050340114863
:100b600001400b43b3503760fff700fb0122022125
:100b70002379134323710c4b1970fff7f7faa888f8
:100b8000fff77afb0020f8bd5c0100200400002084
:100b900052540042505400420054004204e100e02c
:100ba00000e100e0ffff00ff7a01002070b5094b73
:100bb00003201d78022d0bd10122074c1a70fff77c
:100bc000d5fa2388ab432380fff7d0fa00202071a9
:100bd00070bdc0467a01002000540042054b9a7a4d
:100be000d2b2910701d502219972d20701d5012213
:100bf0009a72704700540042f8b5fff7b7fa022125
:100c0000204a13888b431380fff7e8ff1e4b1f4ccd
:100c10001f4a18881988238812685b00d1521d4b1f
:100c200080b21b78012b02d0022b10d0f8bd238894
:100c300001332380fff700fb002805d12088fff750
:100c40001bfb04232372f1e7e3689847eee70c21ce
:100c50000f22114b25881e686943736800275918b5
:100c60008b7a1a40cb7a934201d99b1adfb20621c4
:100c7000f8406943b3685b185880022323722369e4
:100c8000e3e7c04600540042585400425c01002093
:100c9000080000207a0100200400002070b5002424
:100ca000044b054d1c72fff761fa6c61fff75efaa9
:100cb000ac6170bd5c010020005400422f207047e1
:040cc0001020704749
:020000040000fa
:100cc4000122014b1a7070470c0000208223db05bf
:100cd40019002022fc314a6000224a614621ff317a
:100ce4005a547047fee7fee7fee7064a53789078c9
:100cf4001b1a9bb218b2002801da3c3318b2c0b2f6
:100d04007047c0460c000020f0b512490b7ec87035
:100d1400dbb2002b0dd10126c81c48608e600e7614
:100d24008d680d4a177e1400374205d1cb6001232c
:100d3400a375f0bd048808e09d42f7d007275468e6
:100d44003c40012cf6d0cc1ce45c14850133023009
:100d5400e7e7c0460c000020001400420b4b70b5be
:100d64001c0034342578002d0fd11d003535287032
:100d7400012020701c00363420701c003734207091
:100d8400087899639a87fff7bfff70bd0c000020b5
:100d9400012310b5044c34342370fff7b5ff2378d6
:100da400012bfcd010bdc0460c000020f8b5002378
:100db40007000e0014000a4d55202b70fff7e8ffc2
:100dc4003800fff7e5ff3000fff7e2ffe0b2fff77e
:100dd400dfff200afff7dcff01232b70f8bdc046bc
:100de4007c010020074b19009a783e31885c9a7880
:100df4000132d2b29a709a783c2a01d100229a70b8
:100e04007047c0460c000020062343430e4930b50a
:100e14007a31c9184a880d4b140a5c700c2460435b
:100e24001818848a1a70121b92b21a71120a5a7113
:100e3400027b250ad209dd709c709a710a79da71f5
:100e44004a791a7230bdc0460c0000208c00002084
:100e540070b51e4a041e09d001281bd0022805d0f3
:100e6400032803d0053c63425c41a4000123184dd0
:100e7400d38463005e5ba400517e042032002d19ec
:100e8400fff794ff3200e9681ce00822114b9c63d1
:100e94009a8770bdd0840c20140048430e4b1e3436
:100ea4001b18187b2071587b6071987bdb7ba071c9
:100eb400e3710029e9d1517e04200822fff776ff6f
:100ec400082221000220fff749ffe2e78c000020fe
:100ed400e82100000c0000207c010020f8b5354b0f
:100ee400354c1d78edb2012d03d00023343423702a
:100ef4000ee0260037363378a28f9a4209d9337828
:100f0400a26bd05cfff700ff33780133dbb23370a0
:100f1400f8bd230035331a78022a23d12700274b42
:100f240036373978da8c91420ed23978587ec9b284
:100f3400fff78eff35703b780133dbb23b70a36b58
:100f44001878fff7e1fee3e739788a42cdd13a78a1
:100f54000132d2b23a70597e1a8d8d40aa431a8555
:100f6400aa20eee71f78ffb2012fd1d12500134b41
:100f740036352978da8c914211d22a331b782878b5
:100f8400823b5a4253410e4a9b00d3181b6ac0b29b
:100f9400984737702b780133dbb22b70cfe7297871
:100fa4008a42a2d12a780132d2b22a701a8d52040e
:100fb400520cd4e77c0100200c0000208c0000209f
:100fc400e8210000064a074b917c2b339269197083
:100fd40011785970517899709278da707047c046d8
:100fe4007c0100208c0000200722074b598b114202
:100ff40006d0802119765a83033a197e114200d112
:101004007047198df9e7c04600140042f7b5060091
:101014000191041e13d00b4d00242f0030373b7870
:10102400a3420cd1fff7e0ff019bee612b62012389
:1010340084216c623b706c861c00034a917520000d
:10104400febdc0460c000020001400420b4810b541
:101054000b4b040019003c345a7824783e318c54ec
:101064005a780132d2b25a705a783c2a01d10022fd
:101074005a7001213c30fff7c9ff10bd8c000020dd
:101084000c00002010b5084a084b918989b25964b4
:101094000749918192891a6c002a03d0586c996c83
:1010a4001b6c984710bdc046002400408c000020f3
:1010b400ff81ffff70b58901002812db8308134a02
:1010c40003249b009b18ff222040a0401400c0254d
:1010d400844011408140ad005e59a64331435951cb
:1010e40070bd03240f23c0b203402040a040fc3451
:1010f4002500214085408140083b054a9b089b0010
:101104009b18da69aa431143d961e9e700e100e0d9
:1011140000ed00e0002805db1f2318401e3b834040
:10112400014a13607047c04600e100e0f7b50500ce
:10113400061e09d0012807d0022805d0032803d0b1
:10114400461f73425e41b600fff7cffd84b2012d06
:101154004cd0002d4cd0022d4bd0394bb6009e19eb
:10116400384bf5685c8b2c19a5423cd0fff73afe4e
:1011740028700135f8e70026fff734fe314d2a00c8
:101184001e32b0540136082ef6d12e000c234c36f4
:1011940037782d497b43cb1851792b485973917972
:1011a400203099731179083c1973d279b9b2da7382
:1011b400fff744fc06237b43244a23487a32d2189f
:1011c4002c30390001f043f83378a4b20133dbb298
:1011d4003370012b0ad100223270697e2a778b404a
:1011e4002a8d9a432a85fff7fdfd01e0082cc2d819
:1011f400f7bd032cfcd9134e134a37004c373b7808
:101204003c32019303230199033c4b43d518fff768
:10121400e9fd2870fff7e6fd6870fff7e3fd019b29
:10122400a8700133dbb23b70a4b2012be1d10022e0
:101234003a70717e32778b40328d9a433285d2e791
:10124400e82100008c0000207c0100200c0000201c
:10125400f7b50322d04bd14c1a600623d049636002
:10126400053b0b70cf4982220b70cf49d2050b701e
:10127400ce490b701121ce4b1970ce4b223119700f
:10128400cd4b13395960596146230021ff33d154a2
:10129400133bd154c94b5a681b685003db0c0343fe
:1012a4009b029a0ac64b9a6342221a7559750431f5
:1012b40098690842fcd11021d8680842fcd08020eb
:1012c400197d014319750021be4b99611961be490d
:1012d400be4b1962042158680842fcd1bc495962ca
:1012e400082158680842fcd14023ba490b600868b9
:1012f4001842fcd04121b84b1960013918680842e2
:10130400fcd0b64b1960402118680842fcd041213a
:10131400b34b19620139186a0842fcd0b14bb24987
:10132400b24ad96184236360db051a62b04ab14bc7
:101334001360b14b9381c0239b025360d369002b8c
:10134400fcd1116802330b431360d369002bfcd129
:10135400aa4c22003032e3612362636213700122db
:10136400a3626360a360e360237623616386a44b76
:101374001a8019691142fcd1c021490019806139d0
:101384001a62ff391a690a40fcd180214900598147
:101394009c4e9d493164b264083219691142fcd1f2
:1013a400022219889143198011001a690a40fcd15c
:1013b4009a61083219691142fcd114221a620c3262
:1013c40019691142fcd102221988114319801d693f
:1013d4001540fcd18d4f20373800fff762fa3000fa
:1013e4004e30fff7a9fa29003800fff717fb290050
:1013f4003800fff723fb220084487a3229002c307e
:1014040000f025ff3000824b01212361814b3c30e9
:101414006561a362e562fff7f9fdbff35f8f62b612
:1014240003210220fff746fe0220fff773fe03218b
:101434000d20fff73ffe0d20fff76cfe1e20032159
:10144400fff738fe1e20fff765fe6e4d2e00503666
:101454003378012b07d16d486f492030fff776fab6
:10146400002800d130702378012b1bd10023237076
:10147400fff766f8654e002807d13000403000f0d1
:101484001bfc30002c3000f0d1f980222b8d12028d
:1014940013432b85f36a1a7801237f2a1ed92a0065
:1014a400503213702e7f022e1bd0032e00d1d1e0b8
:1014b4000023002e10d1fff718fc05281bd9fff7d5
:1014c40091fc552817d1fff78dfc2b001833f054ed
:1014d4000136042ef7d102232b770ce02a00513277
:1014e400dfe72e7e022e00d09ce0698b3b2944d995
:1014f400687efff71bfe230034331b78dbb20193b5
:10150400002b30d12b8d1bb2002b2cda434f444bd4
:1015140003201e783b0028339a5d2b002a331a706f
:1015240019783b0072002a33b600d25ac9b2be19e8
:10153400fff73cfc336a01989847394b01201e7829
:101544003b002e339b5deb847300fb181a8eb300b3
:10155400ff180136796bf6b2fff700fc304b022e10
:1015640000d19ae01e70294b20225b6b1978124b34
:101574007f2900d894e09a6167e7fff7b6fb6b8b8d
:1015840080b28342b7d20122697e2b8d8a401343f5
:101594009bb22b8503239fe70010002000400041ed
:1015a400c4000041c5000041ca000041cb00004115
:1015b400b2000041b5000041fc0000412060800001
:1015c400001000400014004006010100001c00400f
:1015d40006210c00941c0040981c0040d81c0040bc
:1015e400fc1c0040000800402100200865c20000e7
:1015f40000140042040131402bf6ffff0c000020d0
:10160400002400408c000020b51600007c0100205e
:10161400e10e000051100000c50c0000e82100009c
:10162400de000020012e00d065e7fff75efb0128f5
:1016340000d860e7fff7d6fb0700fff7d3fb002fc6
:1016440000d058e7aa2800d055e76a7e2b8d964033
:1016540033439de7230034331e78f6b2002e00d0c6
:1016640049e72b8d1b0500d145e72b7e012b05d1c6
:10167400687e3100fff7ecfb2e773ce7022b00d0ad
:1016840039e7698b687efff751fd0122697e2b8d56
:101694008a4093432e772b852de7019a1a7062e7cf
:1016a400da61d2e610b5fff797fafff7a3fa10bd97
:1016b400012210b5034b142050331a7000f004febd
:1016c40010bdc0468c000020fee770b51a4b1a7e90
:1016d400002a0fd0dc689a680125944292410726bb
:1016e40016485242017e2940002908d1dc609a68dc
:1016f400a24215d970bd5a6861008a5a07e0002acf
:10170400f4d042683240012af5d05a68125d02854d
:101714009a68013494429241017e52422940e3e79f
:1017240000221a769a60013202751a69002ae1d001
:1017340058691b699847dde70c000020001400423b
:10174400164b70b51a0030321278002a20d01a6a6b
:10175400596a91421cd20726114dd86a298d5a6aba
:101764006c6889b23440012c13d0dc69a154013275
:101774005a62196a91420bd11900002230310a7061
:101784001a6284322a759a6a002a01d09b6a9847a1
:1017940070bddc6956003153e9e7c0460c000020f7
:1017a40000140042072270b50a4d6b8b13400fd012
:1017b400094c6386fff718fc84232b752300002251
:1017c40030331a70a36a934202d0e06aa36a98473e
:1017d40070bdc046001400420c00002010b5124c2d
:1017e400a37d002b1ed0237ea27ddbb252b2002a41
:1017f40004da5bb2002b01dafff7d4ff0122237e67
:10180400a17ddbb2114203d0134201d0fff75dff8b
:101814000422237ea17ddbb2114203d0134201d006
:0c182400fff78eff10bdc046001400420c
:020000040000fa
:10183000f0b587b00090009b0b20002b00d1e2e1b7
:10184000002603275b68049602931b880196059384
:101850000396049b059a93421ed1009b1a68137845
:1018600059b200290bda0820002101268446049c85
:1018700088b2844200d9ffe07f210b401370039ba4
:10188000002b00d009e1019801231178002800d134
:101890005be10b4313705ae1009bb5009b685d1937
:1018a0001e236a681178194001d001232b702b7810
:1018b000042b73d00ad8022b2ed043d8012b23d06f
:1018c000049b033601339bb20493c2e7852b00d1fe
:1018d00082e0862b00d1a9e0072bf1d1298953881a
:1018e00099425fd9c91a009b0298db6840799b5dd9
:1018f00089b20341dbb28b4254d86b78002b69d19b
:1019000001232b701770dbe703930029d8d1022342
:101910002b7008236b70d3e76978002910d05288a8
:10192000042904d92a810139697001237ce02b89bb
:101930009342f8d002d9013b2b81f4e70133fbe756
:101940002f70bde7298953889942b9d0009ad2688f
:1019500010d9cb1a0299925d49799bb20a41d2b251
:101960009a42add8029b1b79002ba9d007222a707e
:101970006b70dae792195b1a11789bb299429fd883
:101980009378002b05d00499009800f077fb00288d
:1019900096d104232b70029b9b78e9e72989538811
:1019a000994202d92f700023b4e7009a5b1ad268db
:1019b0009bb2921911789942f4d29378002b06d0f9
:1019c0000499009800f05afb002800d078e76b7863
:1019d000002b47d0013bcbe7029b00991b7a09689b
:1019e0000b7128895388984207d986232b70029b54
:1019f0009b786b700123019316e0009a1b1ad26842
:101a00009bb291190a784978140001310c410121e7
:101a1000121bd2b201919a4200d251e786232b7059
:101a2000029b9b786b700b00039349e728895388ce
:101a3000984209d96b78002b01d12f7001e0013b4e
:101a40006b70012301933be7009a1b1ad2689bb28b
:101a500091190a784978140001310c41121bd2b255
:101a60009a4204d285232b70029bdb78e8e76b78df
:101a7000002be2d0013bbce70c2500984d43806869
:101a800045196f683878304205d164462d78a543f2
:101a900001d0304338700131e9e6029b597a0029c0
:101aa00000d1f0e6802310785b42034313700129d4
:101ab00000d0e8e600218bb20393049b88b28342f6
:101ac00000d8e0e60c20009b48439b6808251818c6
:101ad000029303781c00ac4315d0852b01d0032b57
:101ae0002ed10325009bdf682b004b43fb189b780e
:101af0009c46002b07d000231e000595049c9c42a9
:101b000008d8002e1cd1012540680378ab43037030
:101b10000131d0e7039c9c420fd00c255d43029c11
:101b20002d5d042d01d0862d07d1059d5d437d19c6
:101b3000ad78654501d10126049b01339bb2dde7f9
:101b40000123406805782b43e1e7994311705288df
:101b5000584b11001b88c8318b4251d99b1a9bb23c
:101b60009c466346c82b4dd96346c83b9bb29c46f6
:101b7000009b1b685a88c8325a801a79002a00d004
:101b800070e05a79002a01d0013a5a719a79002af4
:101b900001d0013a9a71009a50688679002e07d0d8
:101ba0005a79002a04d1078891b28f4234d85e71e5
:101bb000c579002d07d09a79002a04d1068891b200
:101bc000b1423cd39d71009b5b68da78002ac8d093
:101bd0001f880c23002103207b4302938bb2bb425e
:101be000bfd20c22009b4a439b689a181578852d1a
:101bf00004d15578002d38d0013d55700131ede705
:101c0000934202d3002007b0f0bd2b495918891a1e
:101c1000c829f7d9013ba1e70c21009c5143a468d6
:101c200061180d78032d01d0082d06d14c680d895f
:101c30006488ac4201d901350d810132b4e70c2131
:101c400000985143806841180878032801d008287b
:101c500006d14c6808896788874201d2013808811b
:101c60000132ace7013a1a71ade7012405001470a6
:101c700052684d431070009ad2685519ad78002d06
:101c8000bcd0029c02321c1901920394039a934225
:101c9000b4d0019a1678ae4206d101225e6834783b
:101ca000144201d01a703070019a0c330332019241
:0c1cb000ece7c04678010020ffff0000b8
:020000040000fa
:101cbc00f0b502008db00b20002a6ad0556811686f
:101ccc00ab7801934b7802932b7b002b3ed00024f6
:101cdc0020002b889c46019b5b000393029b5e00bb
:101cec006746a3b29f4256d86b7b984200d87be0e4
:101cfc00cb6802995b181978013119701168536817
:101d0c004878c968085c997b88421fd169469d68f0
:101d1c00029b0989e81803780391002b53d0013bef
:101d2c00dbb26e466f46b68800213e823e8a0124a5
:101d3c00b44667468eb2b74247d8002cedd003703c
:101d4c000023180051688978994247d8029b69464c
:101d5c005b000a93019b56685b08013306936b4644
:101d6c009b888b818b890b9300239c460393338830
:101d7c0003998b4244d8029b01990133dbb28b420d
:101d8c008941b0680b40c05c716808700020126813
:101d9c0053700db0f0bd062363438f68fb185f884a
:101dac004b689b5b9f420ad9fb1a9bb21f1c834258
:101dbc0000d2071cb8b2039b0134f61890e79f427f
:101dcc00f9d2db1bf1e70f23abe7039fb74203d03c
:101ddc006e5c9e4200d100240131aae71168c968eb
:101dec00c85401339bb2ade75b088342aed9cb68d4
:101dfc0002995b1819780029a8d001391970a5e748
:101e0c000623039910684b438168cb1804931b7805
:101e1c00db065b0f40d161464068490041180591d3
:101e2c000499059849880a9c099301530199994290
:101e3c002ed9002005995d00491908910400012153
:101e4c000de09f420ad0059d6700ed5b0795089d4c
:101e5c002f88079dbd4215d10131c9b20134019db6
:101e6c00e7b2bd42edd8069c8c4204d9844206d917
:101e7c004118a14203db089b1b880993019b01338a
:101e8c00dbb2d3e7079dbd42e8d20130c0b2e5e733
:101e9c006946049b898c5980039b0b9901339bb237
:0e1eac00039363468c4663449bb29c465fe7fb
:020000040000fa
:021eba0070476f
:020000040000fa
:101ebc00400100201c000000000000007c010020fc
:101ecc00780000000100000001000000000000008c
:101edc00000400000000000401000300e8010020e1
:101eec00ce01002001190600e40100208001002031
:101efc0086000020e8000020ea0100209800002065
:101f0c00b801002014010000d40100208c01002035
:101f1c00023400011700000500000001020000005f
:101f2c0000000000e200002086000020df000020fe
:101f3c0001008130000301000400050014051401a8
:101f4c000c000020e4000000000000000010002045
:101f5c000400000001000000000000007a010020d5
:101f6c000100000001000000010000005c010020e5
:101f7c001400000000000000000000200c00000015
:101f8c0000000000780100200200000000000000aa
:101f9c00700100200400000000000000f000002090
:101fac00500000000000000074010020040000003c
:101fbc00000000000000000000000000666666667d
:020000040000fa
:101fcc0070b5264b1b785bb2002b03db234b1b78c5
:101fdc009b072ed5214b1b785b0719d580239b05be
:101fec000021012003e004331d4a934228d01960dc
:101ffc001a4a92790242f6d0184a9268d206f2d462
:10200c00164aa5241473947901252c439471eae79c
:10201c0080239b05002103e00433114a93420fd027
:10202c0019600e4a9268d206f6d40c4aa520107399
:10203c00f2e780239b05002102c3094a9342fbd19e
:10204c00fef740fe00f080f8064bff229343064a51
:10205c009360064b9847fff7f7f8c0460020004006
:10206c00000001200000000000ed00e0f92000005d
:020000040000fa
:10207c00f7b50c25c3684d439c46032382684b433c
:10208c0055196c6863442d8964889f781b78641b90
:10209c00e41aa3b201930025436860461e88b5423a
:1020ac0001d10020febd8d4218d08378bb4215d1e2
:1020bc0013787b33dbb2012b15d913899c465368fb
:1020cc005b889c450ad264461b1b04789bb2a342d6
:1020dc0004d91b1b019c9bb29c4204d30135adb2ad
:0a20ec0003300c32dbe70120dce7d3
:020000040000fa
:1020f80000230e4a10b513600d4a13600d4a136091
:102108000d4a13600d4a13600d4a5362136101337f
:102118009360fff7cefefff7ccfe0a4c0a4b9c42b9
:1021280000d310bd08cc9847f8e7c04674010020da
:10213800fc000020f8000020f0000020f40000203f
:0c21480000010020cc000000d0000000ce
:020000040000fa
:1021540010b50e4b0e4a934207d30e48016800296e
:1021640007d14368002b04d110bd0021197001333d
:10217400f1e704008368084a9bb20c349b009b5827
:1021840042682000984780002018e7e700000020fc
:0c2194000c000020bc1e00009022000087
:020000040000fa
:1021a00010b5064c2378002b07d1054b002b02d02d
:1021b000044800e000bf0123237010bd400100204f
:1021c0000000000000000000044b10b5002b03d0fd
:1021d0000349044800e000bf10bdc04600000000f5
:0821e000440100200000000092
:020000040000fa
:1021e8000a0008000300080003000000c4010020e2
:1021f80080010020b8010020ec0100209801002097
:102208000d0e0000c90f00008082090011000101b5
:0c221800090011008c000020b70000201d
:020000040000fa
:102224000203040506072021222324252627282922
:1022340008090a0b10111213141516172c2d2e2f22
:0e22440007001300350090003f1c0b0503013e
:020000040000fa
:102252000b23002809d0002a07d00c234b438168a6
:0e226200c91801230b7000234a601800704752
:020000040000fa
:10227000002310b5934206d103201840421e90411e
:0e2280009b08c01810bdc45ccc540133f2e7bb
:020000040000fa
:10229000b922000071220000dd220000dd220000d2
:0422a000dd2200003b
:020000040000fa
:1022a40003b47146490840004900095a49008e4464
:0422b40003bc7047b0
:020000040000fa
:1022b8008a18914201d10020704700230b70013128
:0222c800f7e736
:020000040000fa
:1022cc00024b1a88801818807047c046780100208d
:020000040000fa
:0422dc000020704727
:020000040000fa
:0200000400807a
:04400000ff88feb384
:020000040000fa
:0200000400807a
:04400400bbfcffff03
:00000001FF
