:020000040000fa
:10000000f0ff0020f91b0000112800001528000057
:1000100000000000000000000000000000000000e0
:10002000000000000000000000000000131a0000a3
:100030000000000000000000131a0000131a000066
:10004000131a0000131a0000e1240000131a000024
:10005000131a0000131a0000131a0000131a0000ec
:10006000131a0000131a0000131a0000131a0000dc
:10007000131a0000e11f0000131a0000131a0000f9
:10008000131a0000131a0000131a0000131a0000bc
:10009000131a0000131a0000131a0000131a0000ac
:1000a000131a0000131a0000131a0000131a00009c
:1000b000131a0000131a0000e9270000131a0000a9
:020000040000fa
:1000c000f8b5c046f8bc08bc9e46704789220000bf
:1000d000f8b5c046f8bc08bc9e46704761220000d7
:020000040000fa
:1000e00001224b08c00130b51b1811420fd00f245c
:1000f0000b4a9b181a7822401a7010221c7822434f
:100100001a70084b0918c91801230b7030bd0f2550
:10011000034c1b191c78ac431c701c78efe7c046dd
:1001200030000041400000414b08c0010d4a1b183f
:1001300010b59b18ca070dd50f241a7822401a70e3
:100140001a78913422431a70074b0918c9180123f1
:100150000b7010bd0f241a78a2431a701c780a2263
:10016000f0e7c0463000004140000041024a938958
:100170009bb2002bfbd170470054004270b50600c3
:10018000002401253300e3402b4209d0064b002018
:10019000e15c1f2902d928002039c9b2fff7a0ff6e
:1001a0000134202ceed170bd40250000f0b50624ae
:1001b0001f4b44431a68002093681c1963888b42c4
:1001c0002dd02dd2c91a126889b29378402b00d154
:1001d00049080120842922d8002005291fd90f258c
:1001e0001527a3881c001e1298042e407e43800f02
:1001f000ba3778431b112b4080195b00c0182c4084
:1002000080b2052c0ed8d3780a4a9b069b0f5b0060
:10021000d3181b8c594389b2884280414042f0bdbb
:10022000591ad0e70130053c80b2e4b2e9e7c04694
:1002300004000020402500000d4a70b5106801251b
:1002400002680c49148806220b885a439c420ad93a
:100250008668b65c06322e4202d101339bb2f5e7c6
:1002600000200b8070bd002301200b80fae7c04600
:1002700004000020e4000020f0b587b00390fff7f1
:1002800075ff0222774c784e238893432380316890
:100290000b689a78812a29d11b889c4600231f006d
:1002a00002939ab294454ad83800fff767ff0025b9
:1002b000029b0122eb40134209d06c4b0020e95c09
:1002c0001f2902d901202039c9b2fff72dff0135be
:1002d000202dedd1029dfff749ff3d4300272780e8
:1002e000fff744ff6761fff741ffa5610c27fff7a8
:1002f0003dff039b5f4333685b68db195b686364a6
:10030000fff734ff33685a4a5b68db599bb2d387e7
:10031000fff72cff326857485368d9190b681b0c3c
:1003200003800623039843439068c01802788388ab
:10033000950710d505220270fc22920314e00c22ce
:100340005a434d680133aa181068029d526805434c
:1003500002951743a5e7d206520fedd143488a7a9a
:1003600028301209825c12040d7a13432d061d43b6
:10037000fff7fcfea5640325fff7f8fe336822694a
:100380005b683d49db195b7a0a401b092b401b0562
:1003900013432361fff7eafe336838495b68db19d2
:1003a0005a7a23882a4012020b4013432380fff716
:1003b000ddfe0721336802265b68df19fa7a2369bc
:1003c0002f4f0a4012043b4013432361fff7cefe38
:1003d0002388334323802b4b5b680293002b38d058
:1003e000fff7c4fea36c1b0e0593fff7bffe236946
:1003f0001b051b0f0393fff7b9fe23889b059b0f7b
:100400000493fff7b3fe2388b3432380fff7aefec8
:100410002379ab431d43edb2fff7a8fe2571fff72b
:10042000a5fe194b25691a68082311780b43137030
:10043000fff79cfe23691f402761144b0095049a27
:1004400003990598029da847fff790fe23881e4355
:100450002680fff78bfe0123227f1343237707b00b
:10046000f0bdc046005400420400002040250000ba
:100470000254004260540042ffffcffffffcffff29
:10048000fffff8ffe40000200000002010540042ad
:10049000184b70b51b6800251a6808249378402b08
:1004a00007d00a24802b04d00220812b17d10a24e4
:1004b000032513790f2b13d80f2213400e4a1b026a
:1004c00014401c43fff752fe58230c4e3380fff7b5
:1004d0004dfe3461fff74afe0020094b1d7070bdd0
:1004e0001f2223041b0e93431a00102313431b02e5
:1004f000044ae5e704000020ffe0ffff005400424b
:1005000064540042ff00ffff0b23002802d0024b7f
:100510001860002318007047000000200b230028fb
:1005200002d0024b5860002318007047e4000020fe
:10053000034b03205a68002a01d0002058607047fe
:10054000e4000020f0b5af4b89b01b7a002b00d13e
:10055000a1e1ad4b1b6804931b6805931b880793af
:10056000aa4b1b6806930023029303936b461a89d8
:10057000079b934205d80222a24b1a72039809b036
:10058000f0bd0625029b06995b00cc5a049b02999c
:100590009b680193029b5d43019b5d1907232e78a5
:1005a000b6081e4005334b4304994968cb180193a4
:1005b000db7a042e00d96de1300002f0d3f805009b
:1005c00013004e012f01e2000f21019a927a0a4096
:1005d000934201d99e1af6b234416c80029b0133da
:1005e0000293c3e71c41a3b2894c6b80af88a3423e
:1005f0002ad9884a9b1832009bb2059989784029ec
:1006000026d15b08002a25d0002f27d0042b29d91a
:1006100003220f2439133811944611403a12224014
:1006200020402740002e4ad10536cf2b01d903297f
:1006300055d1152b5dd90f2a56d1220003295ad046
:100640000131c9b2320056e0e31a9bb20022d4e76e
:10065000002ad9d0704a00269742d7d181232b7027
:10066000733b03932b785a0601d501230ce05bb250
:10067000002b0adb0322059bdb781340934208d151
:10068000ff23019a1372ee3b2b70bf04bf0caf80a7
:10069000a4e7022b07d10f22019b5b7a9343019ab7
:1006a00053720923f0e7012bdfd10f22019b5b7a04
:1006b0001a4030231343019a53720d23e4e70a24ae
:1006c000cf2b01d9002930d1152b3ad9002a33d1ab
:1006d0000022914237d00139c9b2220033e0013102
:1006e000cf3bc9b29bb2a0e70132153bd2b29bb25d
:1006f0009fe70f2aa1d0022b11d90f280ad10f2a68
:1007000000d1cbe00132d2b2300003290bd0022b52
:100710008bd828e00130023bc0b29bb2ebe70f2838
:10072000edd003291fd16146f1e70139cf3bc9b2b2
:100730009bb2c5e72000c3e7013a153bd2b29bb29a
:10074000c2e7002ac4d0022b0bd9002804d1002a0a
:1007500011d11700100006e00138023bc0b29bb275
:10076000f1e70028f3d0090389b212020a431743c4
:10077000000107438be7013ad2b2022bdad80a20f4
:10078000f1e71c41019ba4b21f7aff2f08d17f2300
:10079000019a6c8013722b78012b00d01ee724e0a5
:1007a000002339000120d9400026014201d11e005a
:1007b00008230133dbb2072bf3d921001000fff728
:1007c000f5fc002804d00123b3401f43019b1f7296
:1007d0000123002e08d0013ef6b2b340019a127aee
:1007e0009a43019b1a72d6e72b70094b9c424fd952
:1007f000084be418a4b2052c00d8efe645232b7073
:10080000ece6c046e40000200400002008000020c0
:10081000ff01000001feffffff3f00001c41019ba4
:10082000a4b25f7a3e09032e15d021001000fff715
:10083000bdfc00280ad1013601232b700f2336019d
:100840001f40019b3e435e726c80a4e7002ef3d0f4
:10085000013ef6b2f2e70226f0e71c410f26019bab
:10086000a4b25f7a3e4011d021001000fff79efc39
:10087000002806d1013ef6b201232b700f239f43bf
:10088000dfe7032ef8d00136f6b2f7e70126f5e7e9
:100890001c1bafe7fee7032303936fe6032900d198
:1008a00057e7200033e78022f8b5214bd2001a61c8
:1008b0000b265a619a61da61002821d003680c2462
:1008c000198800231d001f009ab291421ad80226ef
:1008d000002d15d038042843fff750fcfff746fce5
:1008e0000023144c2380144b1e7a002e14d1fff7e2
:1008f0003dfc6761fff73afc01230f4aa5611372c3
:100900003000f8bd22005a4346680133b218166819
:10091000526837431543d7e7fff728fc6369002681
:100920001f436761fff722fca3691d43a561e7e749
:10093000004c004200540042e40000200b23002839
:1009400002d0024b186000231800704708000020f6
:10095000f8b507000e000b2500294cd000284ad01e
:10096000284c083d237a002b45d0023d042b42d071
:10097000036801355b79013bab423cd8fff7f6fbde
:100980000222214d2b8893432b80204be6601f6071
:10099000fff77efd80221e4bd2051e4eda67bff3a5
:1009a0004f8fbff36f8f0323ab72fff7dffb012283
:1009b0006b7aff2013436b72174b80251a70c0238c
:1009c000c722ed055b00f5503b6892005b7900049f
:1009d0009b05b1580340114801400b43b35000231d
:1009e00035602380fff728fc051e06d104232088ec
:1009f0002372fff741fc2800f8bd02230225237271
:100a0000f9e7c046e4000020005400420400002042
:100a100004e100e000e100e0c6010020ffff00ff6c
:100a20000b2300280ad003681a8802238a4205d3c0
:100a300004334b4301218268995400231800704706
:100a400010b50b22002813d00368093a1c888c4289
:100a50000ed304324a439b7881688918402b09d110
:100a6000f533ff3300228b800223087803430b7099
:100a7000100010bd803bdbb20222012bf4d8014be9
:100a8000f0e7c04667050000f8b505000b20002917
:100a900079d0002d77d02b68002b74d01a68ae88df
:100aa00014880938a6426ed2374c0138267a042eb3
:100ab00069d052790130013a824264d8334a2161c7
:100ac0001360fff7e5fc0623a9882c684b43a26856
:100ad000a879d3180c22514362680f245218917ad6
:100ae0005b880c40d17a1a18091bc9b292b28a40ad
:100af0001b1a9bb28b40264992b20a80254a9bb2b0
:100b000013800722244c80276379ff0593431a0042
:100b1000042313436371214b214edf67bff34f8fd3
:100b2000bff36f8ffff722fb0323a372fff71efbb8
:100b30000122237a13432372fff718fb0221637a01
:100b4000c7220b436372c023ff205b00f7502b6862
:100b500092001b6800045b79b1589b050340114863
:100b600001400b43b3503760fff700fb0122022125
:100b70002379134323710c4b1970fff7f7faa888f8
:100b8000fff77afb0020f8bde400002004000020fd
:100b900052540042505400420054004204e100e02c
:100ba00000e100e0ffff00ffc601002070b5094b27
:100bb00003201d78022d0bd10122074c1a70fff77c
:100bc000d5fa2388ab432380fff7d0fa00202071a9
:100bd00070bdc046c601002000540042054b9a7a01
:100be000d2b2910701d502219972d20701d5012213
:100bf0009a72704700540042f8b5fff7b7fa022125
:100c0000204a13888b431380fff7e8ff1e4b1f4ccd
:100c10001f4a18881988238812685b00d1521d4b1f
:100c200080b21b78012b02d0022b10d0f8bd238894
:100c300001332380fff700fb002805d12088fff750
:100c40001bfb04232372f1e7e3689847eee70c21ce
:100c50000f22114b25881e686943736800275918b5
:100c60008b7a1a40cb7a934201d99b1adfb20621c4
:100c7000f8406943b3685b185880022323722369e4
:100c8000e3e7c0460054004258540042e40000200c
:100c900008000020c60100200400002070b50024d8
:100ca000044b054d1c72fff761fa6c61fff75efaa9
:100cb000ac6170bde4000020005400422f2070475a
:040cc0001020704749
:020000040000fa
:100cc400f0b587b00090009b0b20002b00d1e2e12f
:100cd400002603275b68049602931b8801960593fc
:100ce4000396049b059a93421ed1009b1a681378bd
:100cf40059b200290bda0820002101268446049cfd
:100d040088b2844200d9ffe07f210b401370039b1b
:100d1400002b00d009e1019801231178002800d1ab
:100d24005be10b4313705ae1009bb5009b685d19ae
:100d34001e236a681178194001d001232b702b7887
:100d4400042b73d00ad8022b2ed043d8012b23d0e6
:100d5400049b033601339bb20493c2e7852b00d175
:100d640082e0862b00d1a9e0072bf1d12989538891
:100d740099425fd9c91a009b0298db6840799b5d50
:100d840089b20341dbb28b4254d86b78002b69d112
:100d940001232b701770dbe703930029d8d10223ba
:100da4002b7008236b70d3e76978002910d0528820
:100db400042904d92a810139697001237ce02b8933
:100dc4009342f8d002d9013b2b81f4e70133fbe7ce
:100dd4002f70bde7298953889942b9d0009ad26807
:100de40010d9cb1a0299925d49799bb20a41d2b2c9
:100df4009a42add8029b1b79002ba9d007222a70f6
:100e04006b70dae792195b1a11789bb299429fd8fa
:100e14009378002b05d00499009800f0efff002888
:100e240096d104232b70029b9b78e9e72989538888
:100e3400994202d92f700023b4e7009a5b1ad26852
:100e44009bb2921911789942f4d29378002b06d070
:100e54000499009800f0d2ff002800d078e76b785e
:100e6400002b47d0013bcbe7029b00991b7a096812
:100e74000b7128895388984207d986232b70029bcb
:100e84009b786b700123019316e0009a1b1ad268b9
:100e94009bb291190a784978140001310c4101215f
:100ea400121bd2b201919a4200d251e786232b70d1
:100eb400029b9b786b700b00039349e72889538846
:100ec400984209d96b78002b01d12f7001e0013bc6
:100ed4006b70012301933be7009a1b1ad2689bb203
:100ee40091190a784978140001310c41121bd2b2cd
:100ef4009a4204d285232b70029bdb78e8e76b7857
:100f0400002be2d0013bbce70c2500984d438068e0
:100f140045196f683878304205d164462d78a54369
:100f240001d0304338700131e9e6029b597a002937
:100f340000d1f0e6802310785b420343137001294b
:100f440000d0e8e600218bb20393049b88b283426d
:100f540000d8e0e60c20009b48439b68082518183d
:100f6400029303781c00ac4315d0852b01d0032bce
:100f74002ed10325009bdf682b004b43fb189b7885
:100f84009c46002b07d000231e000595049c9c4220
:100f940008d8002e1cd1012540680378ab430370a8
:100fa4000131d0e7039c9c420fd00c255d43029c89
:100fb4002d5d042d01d0862d07d1059d5d437d193e
:100fc400ad78654501d10126049b01339bb2dde771
:100fd4000123406805782b43e1e799431170528857
:100fe400584b11001b88c8318b4251d99b1a9bb2b4
:100ff4009c466346c82b4dd96346c83b9bb29c466e
:10100400009b1b685a88c8325a801a79002a00d07b
:1010140070e05a79002a01d0013a5a719a79002a6b
:1010240001d0013a9a71009a50688679002e07d04f
:101034005a79002a04d1078891b28f4234d85e715c
:10104400c579002d07d09a79002a04d1068891b277
:10105400b1423cd39d71009b5b68da78002ac8d00a
:101064001f880c23002103207b4302938bb2bb42d5
:10107400bfd20c22009b4a439b689a181578852d91
:1010840004d15578002d38d0013d55700131ede77c
:10109400934202d3002007b0f0bd2b495918891a96
:1010a400c829f7d9013ba1e70c21009c5143a4684e
:1010b40061180d78032d01d0082d06d14c680d89d7
:1010c4006488ac4201d901350d810132b4e70c21a9
:1010d40000985143806841180878032801d00828f3
:1010e40006d14c6808896788874201d20138088193
:1010f4000132ace7013a1a71ade70124050014701e
:1011040052684d431070009ad2685519ad78002d7d
:10111400bcd0029c02321c1901920394039a93429c
:10112400b4d0019a1678ae4206d101225e683478b2
:10113400144201d01a703070019a0c3303320192b8
:0c114400ece7c04666010020ffff000041
:020000040000fa
:10115000c80000201c000000000000000c0100205e
:101160000c0000000000000098000020300000008b
:1011700000000000680100200300000000000000e3
:1011800009010020020000000000000040010020d2
:1011900006000000000000004801002006000000da
:1011a00000000000180100200c00000000000000fa
:1011b0003001002008000000000000000b010020aa
:1011c0000100000000000000640100200200000097
:1011d000000000002d0100200100000000000000c0
:1011e000e8010020030000000100000000010200ef
:1011f000dc01002006000000010000000100813039
:1012000000030000a40100201800000001000000fd
:10121000000000000004000000000004dc010020c9
:10122000a401002048010020e40100200300000088
:101230000100000014010000bc0100200a000000b1
:101240000100000001000400050014051401000065
:101250007401002020000000010000003001002087
:10126000bc01002018010020e4010020010003005f
:10127000e0010020e801002001190600d40100204f
:1012800008000000010000009401002084010020fb
:101290009401002010000000010000000000000088
:1012a0004001002048010020680100203801002092
:1012b00008000000000000002e01002001000000d6
:1012c00000000000460100200200000000000000b5
:1012d0002f01002001000000000000006b01002031
:1012e00002000000000000004e010020020000008b
:1012f000000000006d01002002000000000000005e
:101300005c0000203c0000000000000024010020e0
:101310000900000000000000f8000020110000009b
:10132000000000006f01002002000000000000002b
:1013300056010020060000000000000050010020bf
:101340000600000000000000710100200300000002
:1013500000000000c80100200a0000000100000099
:10136000023400011700000500000000e701002022
:10137000010000000100000001000000001000203a
:10138000040000000100000000000000c601002071
:10139000010000000100000001000000e400002046
:1013a0001400000000000000000000200c000000fd
:1013b00000000000660100200200000000000000a4
:1013c0005c01002004000000000000000c00002070
:1013d0005000000000000000600100200400000038
:1013e0000000000000000000000000006666666665
:020000040000fa
:1013f000f8b5794c2379022b5bd0032b3ed0002b20
:101400000cd000232371754d2b78002b05d1744b24
:101410001b881bb2002b00da86e0f8bd714b1a78ee
:10142000714b1978521a92b211b2002900da9de07c
:10143000c9b20529e7d91a786c48815c1a7801325b
:10144000d2b21a701a783c2a01d100221a7055299a
:10145000d9d1210000261a78855c1a780132d2b2df
:101460001a701a783c2a00d11e700d70221d0131ad
:101470009142f0d10223594d2371c5e7574d2e7883
:10148000f6b2002ec0d1564f3b881b05bcd0237846
:10149000012b00d18ae0022bb6d16188607800f080
:1014a000b9f8012261783b888a40934326713b80da
:1014b000aae72378022b60d0012ba4d1494b1a78dc
:1014c000494b1978521a92b211b200296bdbc9b29a
:1014d000012900d897e71a784448815c1a780132cc
:1014e000d2b21a701a783c2a01d100221a701a78e6
:1014f000805c1a780132d2b21a701a783c2a01d173
:1015000000221a70002900d07de7aa2800d07ae7cf
:1015100001226078324982400b88304d13439bb2e0
:101520000b80032323716fe7314c324a2378032069
:10153000d15c314a5b0011701178304ac9b29a5ab5
:1015400000f010fc23782e4a9b009b5800209847ff
:101550002c4a2378d15c2c4a11802a78002a2bd07f
:101560000133dbb2022b18d0237056e73c3211b2a4
:10157000c9b2052900d95ee745e761883b2926d82d
:10158000184b194a1b7812789b1a9bb21ab2002a80
:1015900006dbd2b28a42bbd835e7002323703ce792
:1015a0003c331ab2f5e73c3211b290e76078002183
:1015b00000f0a0fc267127e7144a59008a5a144902
:1015c0009b005958012000f093fe2378c8e760780b
:1015d00000f020f8014d17e75001002071010020b4
:1015e000460100206e0100206d0100205c000020fb
:1015f0006c010020082800006b0100200428000076
:10160000fc2700000c2800004e01002004280000e8
:04161000f4270000bb
:020000040000fa
:10161400f8b5ce46474680b5002800d1cfe0012872
:1016240000d1d7e0022800d16ee003283fd005287e
:1016340000d1d9e06d4b6e4c1d7823780022ed1a51
:10164400adb22bb2002b68dbff251d4001286ad008
:10165400002828d0022833d1032d24d9654b664fa6
:101664009946002398463978644e4b005b184b44e6
:10167400da1c94462278b05c22780132d2b222700d
:1016840022783c2a01d142462270187001339c45cd
:10169400f0d10131033dc9b2adb2012900d183e0db
:1016a400032de2d839700cbc90469946f8bd03224c
:1016b4004e4b4f4c1b7821785b1a9db2002b2cdbd0
:1016c4004f4b9200d5584f4b5888002811d0002218
:1016d40000274a4e2378f15c23780133dbb2237070
:1016e40023783c2b00d12770a954013293b298423d
:1016f400f0d8237823780133dbb2237023783c2b92
:10170400d1d100232370cee7384b394c1b78227893
:101714009b1a9db2002b9fda02223c352bb2ff2587
:101724001d40012894d1082dbdd9334f334e3b7849
:101734009c46354b9846002340464246994608301d
:101744002378f15c23780133dbb2237023783c2bbc
:1017540001d14b462370117001329042f0d16046a2
:1017640000f064ff3878083d0130c3b29c463b70fa
:10177400adb2012b02d0082dddd894e700226546d6
:1017840020483a7002714078204985400b88ab4369
:101794000b80237823780133dbb2237023783c2b2e
:1017a40000d080e722707ee70022164d3a702a713d
:1017b4006d781648a94003888b430380e9e70b4bf7
:1017c4000b4c1b7822789b1a9db2002b00db6ae736
:1017d4000022a2e7054b064c1b7822789b1a9db287
:1017e400002ba0da012298e7042261e76e010020b1
:1017f4006d010020e40100202e0100205c00002087
:101804003c27000050010020380100204601002040
:020000040000fa
:10181400f0b502008db00b20002a6ad0556811681b
:10182400ab7801934b7802932b7b002b3ed00024a2
:1018340020002b889c46019b5b000393029b5e0067
:101844006746a3b29f4256d86b7b984200d87be090
:10185400cb6802995b1819780131197011685368c3
:101864004878c968085c997b88421fd169469d689d
:10187400029b0989e81803780391002b53d0013b9c
:10188400dbb26e466f46b68800213e823e8a012452
:10189400b44667468eb2b74247d8002cedd00370e9
:1018a4000023180051688978994247d8029b6946f9
:1018b4005b000a93019b56685b08013306936b46f1
:1018c4009b888b818b890b9300239c4603933388dd
:1018d40003998b4244d8029b01990133dbb28b42ba
:1018e4008941b0680b40c05c7168087000201268c0
:1018f40053700db0f0bd062363438f68fb185f88f7
:101904004b689b5b9f420ad9fb1a9bb21f1c834204
:1019140000d2071cb8b2039b0134f61890e79f422b
:10192400f9d2db1bf1e70f23abe7039fb74203d0e8
:101934006e5c9e4200d100240131aae71168c96897
:10194400c85401339bb2ade75b088342aed9cb6880
:1019540002995b1819780029a8d001391970a5e7f4
:101964000623039910684b438168cb1804931b78b2
:10197400db065b0f40d16146406849004118059180
:101984000499059849880a9c09930153019999423d
:101994002ed9002005995d00491908910400012100
:1019a4000de09f420ad0059d6700ed5b0795089df9
:1019b4002f88079dbd4215d10131c9b20134019d63
:1019c400e7b2bd42edd8069c8c4204d9844206d9c4
:1019d4004118a14203db089b1b880993019b013337
:1019e400dbb2d3e7079dbd42e8d20130c0b2e5e7e0
:1019f4006946049b898c5980039b0b9901339bb2e4
:0e1a0400039363468c4663449bb29c465fe7a7
:020000040000fa
:021a1200fee7ed
:020000040000fa
:101a140070b5394b1c78e4b2012c03d00022374b4b
:101a24001a7070bd364d374a2b7812889a4234d8d2
:101a3400354b1a78022a1cd01c78e4b2012cf0d160
:101a4400324e334b32781b889a4234d332789342e5
:101a5400e4d133782f4a0133dbb2337013885b044b
:101a64005b0c1380aa232c480121037000f07cfa3c
:101a7400d7e7264e264b32781b889a4234d33278e5
:101a84009342cbd1337825490133dbb233704978a3
:101a9400204a8c401388a343e3e7214a2b78126839
:101aa4001d48d35c0121037000f05efa2b780133ea
:101ab400dbb22b70b5e71b4b1b783078823b5a4264
:101ac4005341194a9b00c0b29b5898472c703378f5
:101ad40011480133dbb23370114b01211b681b78b1
:101ae400037000f041fa9ce731780c4bc9b2587886
:101af40000f0fef9eae7c046e7010020710100208a
:101b040073010020560100202f01002072010020e3
:101b14004e010020460100207001002050010020e9
:0c1b2400580100206b010020fc2700008d
:020000040000fa
:101b3000294b04215a681b685203db0c13439b0298
:101b4000264a9b0a936342231375002353759369b6
:101b50001942fcd11021214ad3681942fcd08021be
:101b6000137d0b43137500221d4b7c399a611a615a
:101b70001c4a1d4b136253681942fcd108211b4bb0
:101b80005362184a53681942fcd19423402194208f
:101b9000d150144a13581942fcd04121982398205f
:101ba000d150104a013913581942fcd0d823d820fb
:101bb000d15040220b490b581a42fcd08e224123af
:101bc00052008b504021074883581942fcd0084be3
:101bd000084ada617047c04620608000001000406b
:101be00000140040001c00400601010006210c000a
:081bf00000080040210020085c
:020000040000fa
:101bf800f8b5284b1b785bb2002b1edb254b1b78f6
:101c08009b071ad480239b050021234a02c39342d1
:101c1800fcd1224b9847224b984700f0f7fa214b0a
:101c2800ff229343204a9360204b9847204b9847c4
:101c3800204b984700f09efbfee7164b1b785b078e
:101c480017d580239b050024124a01201026a525bc
:101c58001c609179014207d091680e4204d1157336
:101c6800917901273943917104330b498b42efd1a4
:101c7800cfe780239b05002506491024a5260648a2
:101c88001d608a68144200d10e7304338342f7d171
:101c9800bfe7c04600200040000001208d2600005c
:101ca8007b1e00000000000000ed00e00d21000098
:081cb8007b1e00007b1e0000f2
:020000040000fa
:101cc00070b5204d2b78012b07d01f4b1c78e4b248
:101cd000012c0ed0fff78cfb70bd1c491c48fef791
:101ce00037fe0028f1d1184b28701c78e4b2012c83
:101cf000f0d100221a70fef725fc00280cd0154bfd
:101d00001c70154c00f010fd23681b787f2b15d834
:101d10000122124b1a70dde71148fff77bfd002806
:101d200002d002220b4b1a700b4c2000fef7caffa8
:101d30000028e7d00322074b1a70e3e701232b703a
:101d4000c8e7c0460b0100202d010020dd27000060
:101d5000b00100200a0100207401002009010020c8
:041d6000d40100208a
:020000040000fa
:101d6400f8b54746ce460023214e224d224c80b57d
:101d7400337001338146884623700121543328008f
:101d840017002b7000f0f0f82378012bfcd001230e
:101d940023704b46012128002b7000f0e5f82378ce
:101da400012bfcd0012323704346012128002b7012
:101db40000f0daf82378012bfcd00123012128005c
:101dc40023702f7000f0d0f82378012bfcd001236e
:101dd4003f0a0121280023702f7000f0c5f82378f2
:101de400012bfcd0012333700cbc90469946f8bdfe
:0c1df400e70100207001002071010020b8
:020000040000fa
:101e0000f7b50c25c3684d439c46032382684b43ba
:101e100055196c6863442d8964889f781b78641b0e
:101e2000e41aa3b201930025436860461e88b542b8
:101e300001d10020febd8d4218d08378bb4215d160
:101e400013787b33dbb2012b15d913899c46536879
:101e50005b889c450ad264461b1b04789bb2a34254
:101e600004d91b1b019c9bb29c4204d30135adb22b
:0a1e700003300c32dbe70120dce751
:020000040000fa
:021e7a007047af
:020000040000fa
:101e7c0070b51b4c237d002b31d01a49a3686068c8
:101e8c000a7ed2071bd5984219d90726012509e0ed
:101e9c002268d25c01330a8560680a7e15420ed036
:101eac0098420cd94a683240012af1d12268580074
:101ebc00825a01330a8560680a7e1542f0d1a3600c
:101ecc0062689a420bd80023012223756360054b8c
:101edc001a75e368002b02d02069e368984770bd3f
:081eec009800002000140042e0
:020000040000fa
:101ef40070b5002807d001281bd002281dd0032864
:101f04001ed005281fd00a24104d0122104b042096
:101f14001a80104b22005978fff722ff0e4b1b78d2
:101f2400002b00d070bd22002900022000f0def951
:101f3400f8e7080000f088f8f4e7084d0324e4e724
:101f4400074d0824e1e7074d0324dee7c80100201c
:101f54004e0100205001002071010020e401002006
:081f6400be01002090010020e5
:020000040000fa
:101f6c00f0b500282ed0194f00233a7d002a27d136
:101f7c0038600133796016493b757c680a7e1342e0
:101f8c0022d0002c17d000230726012507e0c25cc5
:101f9c0001330a850a7e15420cd09c420bd04a684c
:101fac003240012af3d15a00825a01330a850a7e43
:101fbc001542f2d11c000122054bbc609a7501231d
:101fcc001800f0bd0023fbe70024f4e79800002084
:041fdc0000140042ab
:020000040000fa
:101fe00010b5184b9a7d002a22d01a7e9b7dd2b262
:101ff0005bb2002b1ddb134a137e917d0122dbb205
:102000000a4201d01a421ad10e4a137e917d04224f
:10201000dbb20a420cd01a420ad02c220a4b9a5c3c
:10202000002a05d0da691b6a9a4201d900f040f80b
:1020300010bd52b2002adeda00f0c2f9dbe7fff78a
:0c2040001dffe1e70014004298000020a2
:020000040000fa
:10204c000122114b10b51a8043001b180f4a9b003c
:10205c000f4cd3586360002805d008220d4b1c6030
:10206c000d4b1a8010bd0d4b082259780430fff728
:10207c0073fe0b4b1b78002bf4d10822210002209d
:10208c0000f030f9eee7c0464e010020ac01002014
:10209c00380100205801002056010020500100207a
:0420ac00710100209e
:020000040000fa
:1020b00070b5144b144c986a218d1a6a6568072410
:1020c00089b22c40012c07d09c69a15401321a62bc
:1020d000d9698a4208d070bd9c69550001321a62e4
:1020e0002953d9698a42f6d100222c215a54da6147
:1020f000054a583111755a6a002aecd05b6a984734
:0c210000e9e7c0469800002000140042ef
:020000040000fa
:10210c0000230e4a10b513600d4a13600d4a13607c
:10211c000d4a13600d4a13600d4a5362136101336b
:10212c00936000f01efa00f01cfa0a4c0a4b9c4219
:10213c0000d310bd08cc9847f8e7c04660010020da
:10214c0018000020140000200c00002010000020bb
:0c215c001c000020cc000000d00000009f
:020000040000fa
:1021680030b5bff35f8f62b6c020c0210f4b80002f
:102178001a580f4d09042a400a431a5004221a60bb
:10218800c322920098580b4c0440c0200002204300
:102198009850802292011a60c72080001a582a405d
:1021a800114319508022d2051a6030bd00e100e0c9
:0821b800ffff00ffff00ffff25
:020000040000fa
:1021c000104a114b1360114b9381c0239b02536043
:1021d000d369002bfcd1022113680b431360094a19
:1021e000d369002bfcd12c21094a9361d36113627e
:1021f000535453621360536093601375d360d38557
:102200007047c04600140042040131402bf6ffff26
:042210009800002012
:020000040000fa
:1022140010b50e4b0e4a934207d30e4801680029ad
:1022240007d14368002b04d110bd0021197001337c
:10223400f1e704008368084a9bb20c349b009b5866
:1022440042682000984780002018e7e7000000203b
:0c2254000c00002050110000502700007a
:020000040000fa
:1022600010b5064c2378002b07d1054b002b02d06c
:10227000044800e000bf0123237010bdc800002007
:102280000000000000000000044b10b5002b03d03c
:102290000349044800e000bf10bdc0460000000034
:0822a000cc000020000000004a
:020000040000fa
:1022a80070b505000e00002818d02c230c4c002017
:1022b800e35c002b11d10b4b5b8b5b0701d000f06b
:1022c80093f900232c2201210120a561e6612362f4
:1022d800a154e385034b58329a7570bd0020fce782
:0822e8009800002000140042e0
:020000040000fa
:1022f0000a4b10b518700123094803700948037090
:1023000009480370094b0a4819600a4b1a800b7878
:1023100001210370fff72afe10bdc0462f010020e7
:10232000710100207201002073010020580100207b
:0823300070010020560100209d
:020000040000fa
:1023380010b500f09df80b4c2000fef7b0fa0a48e3
:10234800fef7f8fa00212000fef766fb00212000c6
:10235800fef772fb054a0021054800f075f900f008
:102368002ff910bdb00100206401002048010020b1
:0423780074010020cc
:020000040000fa
:10237c0003220f4b10b5002082241a6000f0c2f823
:10238c00e405fff797fc002000f0bef903060ad421
:10239c008c2320225b00e250fff78cfc002000f025
:1023ac00b3f90306f4d58a2320225b00e250e8e758
:0423bc0000100020ed
:020000040000fa
:1023c000072210b50c494b8b134010d00b4ce38502
:1023d0004b8b1a420cd18422074b1a752c230022f6
:1023e000e254636a002b02d0a06a636a984710bd6a
:1023f00000f0fef8efe7c04600140042980000200d
:020000040000fa
:1024000082230122c421db055a5401315a5405317b
:102410005a5401315a54b132ba39995403322231e3
:102420009954953acd315a5010315a5046210022d4
:0c243000ff315a5413395a547047c0460b
:020000040000fa
:10243c00430030b518180a4c0a4a43008000d218e1
:10244c002518094b51882d891980491b9980015dec
:10245c005d80c90999711179d97152791a7230bd9f
:0c246c001801002048010020240100207d
:020000040000fa
:10247800002110b5094800f09bf9082208490b69aa
:102488001a42fcd100f018f9002000f021f91420bc
:1024980000f028f900f004f910bdc046012700003b
:0424a80000240040cc
:020000040000fa
:1024ac0010b5094a0948137804780949cc541378b3
:1024bc000133dbb2137013783c2b01d10023137062
:1024cc000121fff7ebfe10bd6e0100206f01002013
:0424dc005c00002080
:020000040000fa
:1024e00010b5084a084b918989b259600749918112
:1024f00092891a68002a03d0586899681b6898471f
:1025000010bdc046002400400c010020ff81ffffe9
:020000040000fa
:10251000062210b5094b5a60fff772fffff708fb60
:1025200000f044f900f032f9fff74afe00f020f81d
:10253000fff702fffff718fe10bdc0460040004144
:020000040000fa
:102540000203040506072021222324252627282903
:1025500008090a0b10111213141516172c2d2e2f03
:0e25600007001300350090003f1c0b0503011f
:020000040000fa
:02256e007047b4
:020000040000fa
:1025700001230121084a138013691942fcd1c023a9
:102580005b00138011622021034a13691942fcd1b8
:0c25900080235b00538170470024004052
:020000040000fa
:10259c0010b5040001000648fef74cfa6200054b2a
:1025ac00121952009a18e1b2034800f04bf810bd12
:0c25bc00b0010020480100207401002044
:020000040000fa
:1025c80010b50021054800f0f9f80021044800f092
:1025d800fbf801210348fff763fe10bd151a000040
:0825e800ad2400006f0100208a
:020000040000fa
:1025f0008022064b1a76793a5a831a7e520704d5fe
:1026000004211a8d1a7e1142fbd17047001400423a
:020000040000fa
:10261000054a064b91789268197011785970517873
:1026200099709278da70704784010020f8000020d9
:020000040000fa
:1026300010b5054b054a596843001b189b00d15043
:1026400080b2fff7abff10bd38010020ac010020c5
:020000040000fa
:102650000b23002809d0002a07d00c234b438168a4
:0e266000c91801230b7000234a601800704750
:020000040000fa
:10266e00002310b5934206d103201840421e90411c
:0e267e009b08c01810bdc45ccc540133f2e7b9
:020000040000fa
:10268c00822380222021db05520099500022f03158
:0c269c005a504621ff315a547047c04686
:020000040000fa
:1026a8000221044a13880b4302211380136919423b
:0826b800fcd170470024004032
:020000040000fa
:1026c0000221044a13888b43138013691942fcd1f9
:0826d0007047c04600240040e1
:020000040000fa
:1026d8000821034a906113691942fcd17047c0462a
:0426e800002400408a
:020000040000fa
:1026ec002021034a106213691942fcd17047c0467d
:0426fc000024004076
:020000040000fa
:10270000012210b5024b14201a7000f047f810bdda
:042710000b01002099
:020000040000fa
:10271400034b9a6843001b189b00d05c7047c0466b
:04272400740100201c
:020000040000fa
:102728008021034a090213880b4313807047c0466f
:042738004601002036
:020000040000fa
:10273c00c8010020a4010020e4010020be010020fb
:04274c0090010020d8
:020000040000fa
:10275000792700006f2600001928000019280000c2
:042760001928000034
:020000040000fa
:1027640003b47146490840004900095a49008e449f
:0427740003bc7047eb
:020000040000fa
:102778008a18914201d10020704700230b70013163
:02278800f7e771
:020000040000fa
:10278c008423024adb051a627047c04665c200000a
:020000040000fa
:10279c00024b1a88801818807047c04666010020ca
:020000040000fa
:0c27ac008422014b5a607047004000413d
:020000040000fa
:0c27b800014b1860996070470c01002074
:020000040000fa
:0c27c400014bd86019617047980000209c
:020000040000fa
:0c27d000014b586299627047980000208d
:020000040000fa
:0c27dc000122014b1a7070472d010020f3
:020000040000fa
:0c27e80010b5fef7f7f9fef703fa10bd7c
:020000040000fa
:0827f40024010020f800002080
:020000040000fa
:0827fc003d240000112600003d
:020000040000fa
:0428040009001100b6
:020000040000fa
:042808008082c046c4
:020000040000fa
:04280c000101c046c0
:020000040000fa
:04281000fee7c046d9
:020000040000fa
:04281400fee7c046d5
:020000040000fa
:0428180000207047e5
:020000040000fa
:0200000400807a
:04400000ff88feb384
:020000040000fa
:0200000400807a
:04400400bbfcffff03
:00000001FF
