:020000040000fa
:10000000f0ff0020711800000f240000872400007a
:1000100000000000000000000000000000000000e0
:10002000000000000000000000000000832200002b
:100030000000000000000000832200008322000076
:100040008322000083220000c521000083220000db
:10005000832200008322000083220000832200000c
:1000600083220000832200008322000083220000fc
:1000700083220000711e0000832200008322000002
:1000800083220000832200008322000083220000dc
:1000900083220000832200008322000083220000cc
:1000a00083220000832200008322000083220000bc
:1000b0008322000083220000a92500008322000083
:020000040000fa
:1000c000f8b5c046f8bc08bc9e467047d11f00007a
:1000d000f8b5c046f8bc08bc9e467047a91f000092
:020000040000fa
:1000e00001224b08c00130b51b1811420fd00f245c
:1000f0000b4a9b181a7822401a7010221c7822434f
:100100001a70084b0918c91801230b7030bd0f2550
:10011000034c1b191c78ac431c701c78efe7c046dd
:1001200030000041400000414b08c0010d4a1b183f
:1001300010b59b18ca070dd50f241a7822401a70e3
:100140001a78913422431a70074b0918c9180123f1
:100150000b7010bd0f241a78a2431a701c780a2263
:10016000f0e7c0463000004140000041024a938958
:100170009bb2002bfbd170470054004270b50600c3
:10018000002401253300e3402b4209d0064b002018
:10019000e15c1f2902d928002039c9b2fff7a0ff6e
:1001a0000134202ceed170bd54220000f0b506249d
:1001b0001f4b44431a68002093681c1963888b42c4
:1001c0002dd02dd2c91a126889b29378402b00d154
:1001d00049080120842922d8002005291fd90f258c
:1001e0001527a3881c001e1298042e407e43800f02
:1001f000ba3778431b112b4080195b00c0182c4084
:1002000080b2052c0ed8d3780a4a9b069b0f5b0060
:10021000d3181b8c594389b2884280414042f0bdbb
:10022000591ad0e70130053c80b2e4b2e9e7c04694
:1002300004000020542200000d4a70b5106801250a
:1002400002680c49148806220b885a439c420ad93a
:100250008668b65c06322e4202d101339bb2f5e7c6
:1002600000200b8070bd002301200b80fae7c04600
:1002700004000020e4000020f0b587b00390fff7f1
:1002800075ff0222774c784e238893432380316890
:100290000b689a78812a29d11b889c4600231f006d
:1002a00002939ab294454ad83800fff767ff0025b9
:1002b000029b0122eb40134209d06c4b0020e95c09
:1002c0001f2902d901202039c9b2fff72dff0135be
:1002d000202dedd1029dfff749ff3d4300272780e8
:1002e000fff744ff6761fff741ffa5610c27fff7a8
:1002f0003dff039b5f4333685b68db195b686364a6
:10030000fff734ff33685a4a5b68db599bb2d387e7
:10031000fff72cff326857485368d9190b681b0c3c
:1003200003800623039843439068c01802788388ab
:10033000950710d505220270fc22920314e00c22ce
:100340005a434d680133aa181068029d526805434c
:1003500002951743a5e7d206520fedd143488a7a9a
:1003600028301209825c12040d7a13432d061d43b6
:10037000fff7fcfea5640325fff7f8fe336822694a
:100380005b683d49db195b7a0a401b092b401b0562
:1003900013432361fff7eafe336838495b68db19d2
:1003a0005a7a23882a4012020b4013432380fff716
:1003b000ddfe0721336802265b68df19fa7a2369bc
:1003c0002f4f0a4012043b4013432361fff7cefe38
:1003d0002388334323802b4b5b680293002b38d058
:1003e000fff7c4fea36c1b0e0593fff7bffe236946
:1003f0001b051b0f0393fff7b9fe23889b059b0f7b
:100400000493fff7b3fe2388b3432380fff7aefec8
:100410002379ab431d43edb2fff7a8fe2571fff72b
:10042000a5fe194b25691a68082311780b43137030
:10043000fff79cfe23691f402761144b0095049a27
:1004400003990598029da847fff790fe23881e4355
:100450002680fff78bfe0123227f1343237707b00b
:10046000f0bdc046005400420400002054220000a9
:100470000254004260540042ffffcffffffcffff29
:10048000fffff8ffe40000200000002010540042ad
:10049000184b70b51b6800251a6808249378402b08
:1004a00007d00a24802b04d00220812b17d10a24e4
:1004b000032513790f2b13d80f2213400e4a1b026a
:1004c00014401c43fff752fe58230c4e3380fff7b5
:1004d0004dfe3461fff74afe0020094b1d7070bdd0
:1004e0001f2223041b0e93431a00102313431b02e5
:1004f000044ae5e704000020ffe0ffff005400424b
:1005000064540042ff00ffff0b23002802d0024b7f
:100510001860002318007047000000200b230028fb
:1005200002d0024b5860002318007047e4000020fe
:10053000034b03205a68002a01d0002058607047fe
:10054000e4000020f0b5af4b89b01b7a002b00d13e
:10055000a1e1ad4b1b6804931b6805931b880793af
:10056000aa4b1b6806930023029303936b461a89d8
:10057000079b934205d80222a24b1a72039809b036
:10058000f0bd0625029b06995b00cc5a049b02999c
:100590009b680193029b5d43019b5d1907232e78a5
:1005a000b6081e4005334b4304994968cb180193a4
:1005b000db7a042e00d96de1300001f0abff0500bd
:1005c00013004e012f01e2000f21019a927a0a4096
:1005d000934201d99e1af6b234416c80029b0133da
:1005e0000293c3e71c41a3b2894c6b80af88a3423e
:1005f0002ad9884a9b1832009bb2059989784029ec
:1006000026d15b08002a25d0002f27d0042b29d91a
:1006100003220f2439133811944611403a12224014
:1006200020402740002e4ad10536cf2b01d903297f
:1006300055d1152b5dd90f2a56d1220003295ad046
:100640000131c9b2320056e0e31a9bb20022d4e76e
:10065000002ad9d0704a00269742d7d181232b7027
:10066000733b03932b785a0601d501230ce05bb250
:10067000002b0adb0322059bdb781340934208d151
:10068000ff23019a1372ee3b2b70bf04bf0caf80a7
:10069000a4e7022b07d10f22019b5b7a9343019ab7
:1006a00053720923f0e7012bdfd10f22019b5b7a04
:1006b0001a4030231343019a53720d23e4e70a24ae
:1006c000cf2b01d9002930d1152b3ad9002a33d1ab
:1006d0000022914237d00139c9b2220033e0013102
:1006e000cf3bc9b29bb2a0e70132153bd2b29bb25d
:1006f0009fe70f2aa1d0022b11d90f280ad10f2a68
:1007000000d1cbe00132d2b2300003290bd0022b52
:100710008bd828e00130023bc0b29bb2ebe70f2838
:10072000edd003291fd16146f1e70139cf3bc9b2b2
:100730009bb2c5e72000c3e7013a153bd2b29bb29a
:10074000c2e7002ac4d0022b0bd9002804d1002a0a
:1007500011d11700100006e00138023bc0b29bb275
:10076000f1e70028f3d0090389b212020a431743c4
:10077000000107438be7013ad2b2022bdad80a20f4
:10078000f1e71c41019ba4b21f7aff2f08d17f2300
:10079000019a6c8013722b78012b00d01ee724e0a5
:1007a000002339000120d9400026014201d11e005a
:1007b00008230133dbb2072bf3d921001000fff728
:1007c000f5fc002804d00123b3401f43019b1f7296
:1007d0000123002e08d0013ef6b2b340019a127aee
:1007e0009a43019b1a72d6e72b70094b9c424fd952
:1007f000084be418a4b2052c00d8efe645232b7073
:10080000ece6c046e40000200400002008000020c0
:10081000ff01000001feffffff3f00001c41019ba4
:10082000a4b25f7a3e09032e15d021001000fff715
:10083000bdfc00280ad1013601232b700f2336019d
:100840001f40019b3e435e726c80a4e7002ef3d0f4
:10085000013ef6b2f2e70226f0e71c410f26019bab
:10086000a4b25f7a3e4011d021001000fff79efc39
:10087000002806d1013ef6b201232b700f239f43bf
:10088000dfe7032ef8d00136f6b2f7e70126f5e7e9
:100890001c1bafe7fee7032303936fe6032900d198
:1008a00057e7200033e78022f8b5214bd2001a61c8
:1008b0000b265a619a61da61002821d003680c2462
:1008c000198800231d001f009ab291421ad80226ef
:1008d000002d15d038042843fff750fcfff746fce5
:1008e0000023144c2380144b1e7a002e14d1fff7e2
:1008f0003dfc6761fff73afc01230f4aa5611372c3
:100900003000f8bd22005a4346680133b218166819
:10091000526837431543d7e7fff728fc6369002681
:100920001f436761fff722fca3691d43a561e7e749
:10093000004c004200540042e40000200b23002839
:1009400002d0024b186000231800704708000020f6
:10095000f8b507000e000b2500294cd000284ad01e
:10096000284c083d237a002b45d0023d042b42d071
:10097000036801355b79013bab423cd8fff7f6fbde
:100980000222214d2b8893432b80204be6601f6071
:10099000fff77efd80221e4bd2051e4eda67bff3a5
:1009a0004f8fbff36f8f0323ab72fff7dffb012283
:1009b0006b7aff2013436b72174b80251a70c0238c
:1009c000c722ed055b00f5503b6892005b7900049f
:1009d0009b05b1580340114801400b43b35000231d
:1009e00035602380fff728fc051e06d104232088ec
:1009f0002372fff741fc2800f8bd02230225237271
:100a0000f9e7c046e4000020005400420400002042
:100a100004e100e000e100e0e5010020ffff00ff4d
:100a20000b2300280ad003681a8802238a4205d3c0
:100a300004334b4301218268995400231800704706
:100a400010b50b22002813d00368093a1c888c4289
:100a50000ed304324a439b7881688918402b09d110
:100a6000f533ff3300228b800223087803430b7099
:100a7000100010bd803bdbb20222012bf4d8014be9
:100a8000f0e7c04667050000f8b505000b20002917
:100a900079d0002d77d02b68002b74d01a68ae88df
:100aa00014880938a6426ed2374c0138267a042eb3
:100ab00069d052790130013a824264d8334a2161c7
:100ac0001360fff7e5fc0623a9882c684b43a26856
:100ad000a879d3180c22514362680f245218917ad6
:100ae0005b880c40d17a1a18091bc9b292b28a40ad
:100af0001b1a9bb28b40264992b20a80254a9bb2b0
:100b000013800722244c80276379ff0593431a0042
:100b1000042313436371214b214edf67bff34f8fd3
:100b2000bff36f8ffff722fb0323a372fff71efbb8
:100b30000122237a13432372fff718fb0221637a01
:100b4000c7220b436372c023ff205b00f7502b6862
:100b500092001b6800045b79b1589b050340114863
:100b600001400b43b3503760fff700fb0122022125
:100b70002379134323710c4b1970fff7f7faa888f8
:100b8000fff77afb0020f8bde400002004000020fd
:100b900052540042505400420054004204e100e02c
:100ba00000e100e0ffff00ffe501002070b5094b08
:100bb00003201d78022d0bd10122074c1a70fff77c
:100bc000d5fa2388ab432380fff7d0fa00202071a9
:100bd00070bdc046e501002000540042054b9a7ae2
:100be000d2b2910701d502219972d20701d5012213
:100bf0009a72704700540042f8b5fff7b7fa022125
:100c0000204a13888b431380fff7e8ff1e4b1f4ccd
:100c10001f4a18881988238812685b00d1521d4b1f
:100c200080b21b78012b02d0022b10d0f8bd238894
:100c300001332380fff700fb002805d12088fff750
:100c40001bfb04232372f1e7e3689847eee70c21ce
:100c50000f22114b25881e686943736800275918b5
:100c60008b7a1a40cb7a934201d99b1adfb20621c4
:100c7000f8406943b3685b185880022323722369e4
:100c8000e3e7c0460054004258540042e40000200c
:100c900008000020e50100200400002070b50024b9
:100ca000044b054d1c72fff761fa6c61fff75efaa9
:100cb000ac6170bde4000020005400422f2070475a
:040cc0001020704749
:020000040000fa
:100cc400f0b587b00090009b0b20002b00d1e2e12f
:100cd400002603275b68049602931b8801960593fc
:100ce4000396049b059a93421ed1009b1a681378bd
:100cf40059b200290bda0820002101268446049cfd
:100d040088b2844200d9ffe07f210b401370039b1b
:100d1400002b00d009e1019801231178002800d1ab
:100d24005be10b4313705ae1009bb5009b685d19ae
:100d34001e236a681178194001d001232b702b7887
:100d4400042b73d00ad8022b2ed043d8012b23d0e6
:100d5400049b033601339bb20493c2e7852b00d175
:100d640082e0862b00d1a9e0072bf1d12989538891
:100d740099425fd9c91a009b0298db6840799b5d50
:100d840089b20341dbb28b4254d86b78002b69d112
:100d940001232b701770dbe703930029d8d10223ba
:100da4002b7008236b70d3e76978002910d0528820
:100db400042904d92a810139697001237ce02b8933
:100dc4009342f8d002d9013b2b81f4e70133fbe7ce
:100dd4002f70bde7298953889942b9d0009ad26807
:100de40010d9cb1a0299925d49799bb20a41d2b2c9
:100df4009a42add8029b1b79002ba9d007222a70f6
:100e04006b70dae792195b1a11789bb299429fd8fa
:100e14009378002b05d00499009800f09bfe0028dd
:100e240096d104232b70029b9b78e9e72989538888
:100e3400994202d92f700023b4e7009a5b1ad26852
:100e44009bb2921911789942f4d29378002b06d070
:100e54000499009800f07efe002800d078e76b78b3
:100e6400002b47d0013bcbe7029b00991b7a096812
:100e74000b7128895388984207d986232b70029bcb
:100e84009b786b700123019316e0009a1b1ad268b9
:100e94009bb291190a784978140001310c4101215f
:100ea400121bd2b201919a4200d251e786232b70d1
:100eb400029b9b786b700b00039349e72889538846
:100ec400984209d96b78002b01d12f7001e0013bc6
:100ed4006b70012301933be7009a1b1ad2689bb203
:100ee40091190a784978140001310c41121bd2b2cd
:100ef4009a4204d285232b70029bdb78e8e76b7857
:100f0400002be2d0013bbce70c2500984d438068e0
:100f140045196f683878304205d164462d78a54369
:100f240001d0304338700131e9e6029b597a002937
:100f340000d1f0e6802310785b420343137001294b
:100f440000d0e8e600218bb20393049b88b283426d
:100f540000d8e0e60c20009b48439b68082518183d
:100f6400029303781c00ac4315d0852b01d0032bce
:100f74002ed10325009bdf682b004b43fb189b7885
:100f84009c46002b07d000231e000595049c9c4220
:100f940008d8002e1cd1012540680378ab430370a8
:100fa4000131d0e7039c9c420fd00c255d43029c89
:100fb4002d5d042d01d0862d07d1059d5d437d193e
:100fc400ad78654501d10126049b01339bb2dde771
:100fd4000123406805782b43e1e799431170528857
:100fe400584b11001b88c8318b4251d99b1a9bb2b4
:100ff4009c466346c82b4dd96346c83b9bb29c466e
:10100400009b1b685a88c8325a801a79002a00d07b
:1010140070e05a79002a01d0013a5a719a79002a6b
:1010240001d0013a9a71009a50688679002e07d04f
:101034005a79002a04d1078891b28f4234d85e715c
:10104400c579002d07d09a79002a04d1068891b277
:10105400b1423cd39d71009b5b68da78002ac8d00a
:101064001f880c23002103207b4302938bb2bb42d5
:10107400bfd20c22009b4a439b689a181578852d91
:1010840004d15578002d38d0013d55700131ede77c
:10109400934202d3002007b0f0bd2b495918891a96
:1010a400c829f7d9013ba1e70c21009c5143a4684e
:1010b40061180d78032d01d0082d06d14c680d89d7
:1010c4006488ac4201d901350d810132b4e70c21a9
:1010d40000985143806841180878032801d00828f3
:1010e40006d14c6808896788874201d20138088193
:1010f4000132ace7013a1a71ade70124050014701e
:1011040052684d431070009ad2685519ad78002d7d
:10111400bcd0029c02321c1901920394039a93429c
:10112400b4d0019a1678ae4206d101225e683478b2
:10113400144201d01a703070019a0c3303320192b8
:0c114400ece7c04664010020ffff000043
:020000040000fa
:10115000c80000201c000000000000000c0100205e
:101160000c0000000000000098000020300000008b
:101170000000000009010020030000000000000042
:101180002d01002001000000000000006601002089
:1011900001000000000000003e0100200c000000e3
:1011a00000000000180100200c00000000000000fa
:1011b0002e01002008000000000000006701002050
:1011c00001000000000000005c010020020000009f
:1011d0000000000068010020010000000000000085
:1011e000de010020030000000100000000010200f9
:1011f000d80100200600000001000000010081303d
:1012000000030000a40100201800000001000000fd
:10121000000000000004000000000004d8010020cd
:10122000a401002044010020e1010020030000008f
:101230000100000014010000bc0100200a000000b1
:101240000100000001000400050014051401000065
:101250007401002020000000010000002e01002089
:10126000bc01002018010020e10100200100030062
:10127000dc010020de01002001190600d001002061
:1012800008000000010000009401002084010020fb
:101290009401002010000000010000000000000088
:1012a0003e010020440100200901002036010020f9
:1012b000080000000000000069010020010000009b
:1012c000000000005e01002002000000000000009d
:1012d0006a010020030000000000000060010020ff
:1012e00002000000000000006d010020020000006c
:1012f000000000005c0000203c0000000000000036
:10130000240100200900000000000000f800002077
:1013100011000000000000006f010020020000002a
:101320000000000062010020020000000000000038
:101330005001002004000000000000004a010020cd
:101340000600000000000000710100200300000002
:1013500000000000c60100200a000000010000009b
:10136000023400011700000500000000e401002025
:10137000010000000100000001000000001000203a
:10138000040000000100000000000000e501002052
:10139000010000000100000001000000e400002046
:1013a0001400000000000000000000200c000000fd
:1013b00000000000640100200200000000000000a6
:1013c0005401002004000000000000000c00002078
:1013d0005000000000000000580100200400000040
:1013e0000000000000000000000000006666666665
:020000040000fa
:1013f000f0b502008db00b20002a6ad05568116844
:10140000ab7801934b7802932b7b002b3ed00024ca
:1014100020002b889c46019b5b000393029b5e008f
:101420006746a3b29f4256d86b7b984200d87be0b8
:10143000cb6802995b1819780131197011685368eb
:101440004878c968085c997b88421fd169469d68c5
:10145000029b0989e81803780391002b53d0013bc4
:10146000dbb26e466f46b68800213e823e8a01247a
:10147000b44667468eb2b74247d8002cedd0037011
:101480000023180051688978994247d8029b694621
:101490005b000a93019b56685b08013306936b4619
:1014a0009b888b818b890b9300239c460393338805
:1014b00003998b4244d8029b01990133dbb28b42e2
:1014c0008941b0680b40c05c7168087000201268e8
:1014d00053700db0f0bd062363438f68fb185f881f
:1014e0004b689b5b9f420ad9fb1a9bb21f1c83422d
:1014f00000d2071cb8b2039b0134f61890e79f4254
:10150000f9d2db1bf1e70f23abe7039fb74203d010
:101510006e5c9e4200d100240131aae71168c968bf
:10152000c85401339bb2ade75b088342aed9cb68a8
:1015300002995b1819780029a8d001391970a5e71c
:101540000623039910684b438168cb1804931b78da
:10155000db065b0f40d161464068490041180591a8
:101560000499059849880a9c099301530199994265
:101570002ed9002005995d00491908910400012128
:101580000de09f420ad0059d6700ed5b0795089d21
:101590002f88079dbd4215d10131c9b20134019d8b
:1015a000e7b2bd42edd8069c8c4204d9844206d9ec
:1015b0004118a14203db089b1b880993019b01335f
:1015c000dbb2d3e7079dbd42e8d20130c0b2e5e708
:1015d0006946049b898c5980039b0b9901339bb20c
:0e15e000039363468c4663449bb29c465fe7d0
:020000040000fa
:0215ee008082f9
:020000040000fa
:1015f000f8b5504c504e2379022b14d0032b00d158
:1016000073e0002b00d090e000f0b4fe052813d961
:1016100000f09efe55280fd10421200000f028ff85
:101620000223237108e02578022d47d161883b29e8
:1016300034d9607800f0e4f93578edb2002d2cd182
:101640003e4b1b881bb2002b27da3d4c3d4a2378ca
:101650000320d15c3c4a5b00117011783b4ac9b24f
:101660009a5a00f045fd2378394a9b009b58280080
:1016700098472378374a0120d15c374a1180374a8e
:1016800059008a5a36499b00595800f0d3fc2378f8
:101690000133dbb2022b4ad02370f8bd00f06afea2
:1016a000638880b28342c7d2012260782349824096
:1016b0000b8813439bb20b800323b2e7012dbbd1f0
:1016c00000f058fe0128b7d900f042fe070000f0f4
:1016d0003ffe002fb0d1aa28aed16178174a8d40c5
:1016e00013882b439bb21380e6e73578edb2002dcb
:1016f000a2d1124f3b881b059ed02378012b05d128
:101700006078290000f0dcfb257195e7022b00d002
:1017100092e76188607800f073f9012261783b8874
:101720008a40934325713b8086e7002379e7257043
:10173000b3e7c0464a010020710100205e0100208d
:101740006c010020ee1500006b010020e425000074
:10175000d8250000d21b000060010020e025000019
:04176000d025000090
:020000040000fa
:1017640070b5364b1c78e4b2012c03d00022344b04
:101774001a700fe0334d344a2b7812889a420ad9f2
:10178400324a2b781268d05c00f0a4fe2b78013327
:10179400dbb22b7070bd2e4b1a78022a26d12d4e47
:1017a4002d4b32781b889a4210d22c4b31785878c2
:1017b400c9b200f083fb2c7033780133dbb2337091
:1017c400224b1b68187800f085fee3e732789342d9
:1017d400ccd1337821490133dbb233704978204ac4
:1017e4008c401388a3431380aa20ece71e78f6b23a
:1017f400012ecfd1174c184b22781b889a4211d254
:10180400184b1878c0b200f0d3fe2378164adbb226
:1018140080008258180090472e7023780133dbb281
:101824002370cde722789342a0d123780c4a013368
:10183400dbb2237013885b045b0cd4e7e401002063
:10184400710100207301002062010020500100207a
:101854006a01002072010020600100204a0100207a
:0c1864005e0100206b010020d825000070
:020000040000fa
:1018700070b5294b1b785bb2002b03db264b1b7822
:101880009b072ed5244b1b785b0719d580239b051e
:101890000021012003e00433204a934228d019603c
:1018a0001d4a92790242f6d01b4a9268d206f2d4bf
:1018b000194aa5241473947901252c439471eae7fd
:1018c00080239b05002103e00433144a93420fd088
:1018d0001960114a9268d206f6d40f4aa5201073f7
:1018e000f2e780239b05002102c30c4a9342fbd1ff
:1018f0000b4b98470b4b984700f030fb0a4bff22ed
:1019000093430a4a93600a4b98470a4b98470a4bfd
:10191000984700f087fcfee700200040000001200f
:10192000592400003b2500000000000000ed00e00d
:0c193000151d00003b2500003b250000b9
:020000040000fa
:10193c00244b5a681b685203db0c13439b029a0a14
:10194c00214b9a6342221a7500225a750432996906
:10195c001142fcd11022d9681142fcd080211a7d91
:10196c000a431a750022194b9a611a61184a194bcd
:10197c001a62042259681142fcd1174a5a62082291
:10198c0059681142fcd14023144a13601168194262
:10199c00fcd04122124b1a60013a19681142fcd05a
:1019ac00104b1a60402219681142fcd041220e4b98
:1019bc001a62013a196a1142fcd00c4b0c4ada61da
:1019cc007047c046206080000010004000140040aa
:1019dc0006010100001c004006210c00941c004074
:1019ec00981c0040d81c0040fc1c00400008004023
:0419fc00210020089e
:020000040000fa
:101a0000f8b5050000f0b6fc84b2012d2fd0002df2
:101a10002fd0022d2ed0280000f0ecfc234b8000ac
:101a20005988234bc05800f023fd1de0002500f02d
:101a30008ffc204be8540135082df8d11e4d083c91
:101a4000287800f035fc2b78a4b20133dbb22b7080
:101a5000012b0cd100222a701448184902714078d9
:101a60000a8883409a430a8000f072fc01e0082c47
:101a7000dcd8f8bd032cfcd903270f4e104b35786a
:101a8000033c6f43ff1800f063fc387000f060fc0b
:101a9000787000f05dfc0135ebb2b8703370a4b221
:101aa000012be7d100223270d6e7c0464a01002060
:101ab000ec24000036010020690100205e010020b6
:041ac000e101002020
:020000040000fa
:101ac40070b51c4d2b78012b06d11b491b48fef722
:101ad4003dff002800d12870194b1c78e4b2012c7a
:101ae4001ed100221a70fef72bfd164e00281ad1c3
:101af4001548fff77bfc002802d00222134b1a7012
:101b04003000fff7ddf8002802d003220f4b1a70d3
:101b140000f0d6fc33681a7801237f2a06d92b708b
:101b2400fff764fd70bd094b1c70f1e7084a1370a0
:101b3400f6e7c046670100209d250000b0010020a3
:101b44006801002074010020d001002066010020fb
:041b54002d0100203f
:020000040000fa
:101b5800f7b50c25c3684d439c46032382684b4365
:101b680055196c6863442d8964889f781b78641bb9
:101b7800e41aa3b201930025436860461e88b54263
:101b880001d10020febd8d4218d08378bb4215d10b
:101b980013787b33dbb2012b15d913899c46536824
:101ba8005b889c450ad264461b1b04789bb2a342ff
:101bb80004d91b1b019c9bb29c4204d30135adb2d6
:0a1bc80003300c32dbe70120dce7fc
:020000040000fa
:021bd20001010f
:020000040000fa
:101bd40070b51b4b1a7d002a0fd09c685a680125ea
:101be40094429241072617485242017e2940002917
:101bf40008d19c605a68a24215d970bd1a68610068
:101c04008a5a07e0002af4d042683240012af5d00b
:101c14001a68125d02855a68013494429241017e29
:101c240052422940e3e700221a755a6001320275d4
:101c3400da68002ae1d01869db689847dde7c04616
:081c440098000020001400428a
:020000040000fa
:101c4c00164b70b51a002c321278002a20d0da69a3
:101c5c00196a91421cd20726114d986a298d1a6a6d
:101c6c006c6889b23440012c13d09c69a1540132a8
:101c7c001a62d96991420bd1190000222c310a70d9
:101c8c00da6184322a755a6a002a01d05b6a984755
:101c9c0070bd9c6956003153e9e7c046980000209e
:041cac0000140042de
:020000040000fa
:101cb0000122124b10b51a800b324243104b114ccb
:101cc0009b181a7a22715a7a62719a7adb7aa27117
:101cd000e37100280bd10c4b08225978043000f036
:101ce00007fa08222100022000f0a4f910bd082202
:101cf000064b1c60064b1a80f8e7c04660010020c6
:101d0000a4010020360100204a01002050010020db
:041d1000620100204c
:020000040000fa
:101d140000230e4a10b513600d4a13600d4a136078
:101d24000d4a13600d4a13600d4a53621361013367
:101d3400936000f059fc00f057fc0a4c0a4b9c429b
:101d440000d310bd08cc9847f8e7c04658010020de
:101d540018000020140000200c00002010000020b7
:0c1d64001c000020cc000000d00000009b
:020000040000fa
:101d700030b5bff35f8f62b6c020c0210f4b80002b
:101d80001a580f4c090422400a431a5004221a60c0
:101d9000c325ad0058590b4a0240c0200002104331
:101da0005851802292011a60c72080001a582240a0
:101db000114319508022d2051a6030bd00e100e0c5
:081dc000ffff00ffff00ffff21
:020000040000fa
:101dc800104a114b1360114b9381c0239b0253603f
:101dd800d369002bfcd1116802330b431360d3691c
:101de800002bfcd10a4a11002c319361d361136294
:101df8000b7053621360536093601375d360d3857f
:101e08007047c04600140042040131402bf6ffff22
:041e1800980000200e
:020000040000fa
:101e1c00f0b5051e12d00020104c237ddbb283429e
:101e2c000cd1012625606160267560680c4a177e0e
:101e3c001100374206d10120a3608875f0bd59000e
:101e4c00695a07e08342f6d00727516839400129c7
:101e5c00f5d0e95c11850133e8e7c0469800002015
:041e6c00001400421c
:020000040000fa
:101e700010b5124ca37d002b1ed0237ea27ddbb2b9
:101e800052b2002a04da5bb2002b01da00f014f936
:101e90000122237ea17ddbb2114203d0134201d087
:101ea000fff798fe0422237ea17ddbb2114203d00e
:101eb000134201d0fff7cafe10bdc0460014004215
:020000040000fa
:101ec00070b5012803d10800fff7f2fe70bd0122b2
:101ed0000b4b1a800b4b5e7800f08cfa04000a4b17
:101ee0004200d55a31002a00042000f001f9074bc6
:101ef000a4002a00e158022000f09cf8e6e7c04662
:101f0000600100204a010020be250000ec240000f2
:020000040000fa
:101f1000062141430e4b0f4a59184b8870b51c0ad5
:101f200054700c2460430c4d13702c1824891b1b17
:101f30009bb213711b0a5371435d260adb09d670ed
:101f4000947093710b79d3714b79137270bdc04645
:0c1f5000440100202401002018010020a2
:020000040000fa
:101f5c0010b50e4b0e4a934207d30e480168002968
:101f6c0007d14368002b04d110bd00211970013337
:101f7c00f1e704008368084a9bb20c349b009b5821
:101f8c0042682000984780002018e7e700000020f6
:0c1f9c000c000020501100000025000087
:020000040000fa
:101fa80010b5064c2378002b07d1054b002b02d027
:101fb800044800e000bf0123237010bdc8000020c2
:101fc8000000000000000000044b10b5002b03d0f7
:101fd8000349044800e000bf10bdc04600000000ef
:081fe800cc0000200000000005
:020000040000fa
:101ff00010b500f0b3f80b4c2000fef754fc0a4873
:10200000fef79cfc00212000fef70afd00212000c5
:10201000fef716fd054a0021054800f0cdf900f055
:1020200071f910bdb00100205c01002044010020c6
:042030007401002017
:020000040000fa
:1020340010b50a4c2378002b0ed1094b18700123dc
:1020440008482370037008480370084b0878196027
:10205400074b1a8000f03efa10bdc0467101002003
:102064006a01002072010020730100205001002049
:0420740062010020e5
:020000040000fa
:10207800f7b506000191041e13d00b4d00242f0064
:102088002c373b78a3420cd100f04cf9019bae6190
:10209800eb61012384212c623b70ec851c00034a10
:1020a80091752000febdc046980000200014004233
:020000040000fa
:1020b800072270b50a4d6b8b13400fd0094ce3858e
:1020c80000f030f984232b75230000222c331a707a
:1020d800636a934202d0a06a636a984770bdc0469b
:0820e8000014004298000020e2
:020000040000fa
:1020f000f8b5002307000e0014000a4d55202b7080
:1021000000f09ef9380000f09bf9300000f098f9db
:10211000e0b200f095f9200a00f092f901232b704b
:08212000f8bdc046e4010020f7
:020000040000fa
:102128008223db0519000122c4310a704a708a71c2
:10213800ca711a001121b23211702231d1704a329b
:1021480013395160516146210022ff315a54133925
:042158005a5470471e
:020000040000fa
:10215c0010b50021094800f009fa0823084a14694f
:10216c001c40fcd100f05af9200000f087f9142033
:10217c0000f08ef900f046f910bdc046c9250000ec
:04218c0000240040eb
:020000040000fa
:1021900010b5094b09481a78047809498c541a7803
:1021a0000132d2b21a701a783c2a01d100221a7078
:1021b0000121fff761ff10bd6e0100206f010020bb
:0421c0005c0000209f
:020000040000fa
:1021c40010b5084a084b918989b259600749918131
:1021d40092891a68002a03d0586899681b6898473e
:1021e40010bdc046002400400c010020ff81ffff09
:020000040000fa
:1021f400062210b5094b5a60fff794fffff79cfbca
:1022040000f0b2f900f098f9fff7dcfd00f064f893
:10221400fff7ecfefff7aafd10bdc04600400041e9
:020000040000fa
:102224000322094b10b500201a60fff7e1fffff706
:1022340047fc002000f088f9044b2022010601d558
:102244009a61f4e7da61f2e700100020fc00004133
:020000040000fa
:1022540002030405060720212223242526272829f2
:1022640008090a0b10111213141516172c2d2e2ff2
:0e22740007001300350090003f1c0b0503010e
:020000040000fa
:02228200fee775
:020000040000fa
:1022840010b5010004000648fef7d8fb062363439b
:10229400044ae1b2d218044800f08cf810bdc046dc
:0c22a400b0010020440100207401002063
:020000040000fa
:1022b0000c22424310b5074b80b29b18064a517955
:1022c00059729179997211791972d279da72fff78c
:0c22d000d9ff10bda40100203601002041
:020000040000fa
:1022dc000122084b1a8019691142fcd1c021490016
:1022ec0019801a62202219691142fcd180225200f5
:0822fc005a81704700240040e4
:020000040000fa
:1023040010b50021054800f03bf90021044800f015
:102314003df901210348fff7adfe10bd651700002c
:08232400912100006f0100206f
:020000040000fa
:10232c000722074b598b114206d0802119765a830c
:10233c00033a197e114200d17047198df9e7c04656
:04234c000014004237
:020000040000fa
:10235000064b07491a78885c1a780132d2b21a7093
:102360001a783c2a01d100221a7070476d010020b2
:042370005c000020ed
:020000040000fa
:10237400064b074a1b7810781b1a9bb218b2002828
:1023840001da3c3318b2c0b27047c0466e01002077
:042394006d010020b7
:020000040000fa
:10239800054a064b917892681970117859705178ee
:1023a80099709278da70704784010020f800002054
:020000040000fa
:1023b8000b23002809d0002a07d00c234b4381683f
:0e23c800c91801230b7000234a6018007047eb
:020000040000fa
:1023d600002310b5934206d103201840421e9041b7
:0e23e6009b08c01810bdc45ccc540133f2e754
:020000040000fa
:1023f400002809d0012807d0022805d0032803d0db
:0a240400053843425841800070473c
:020000040000fa
:02240e00fee7e7
:020000040000fa
:102410000222044b19881143198019691142fcd119
:082420007047c0460024004093
:020000040000fa
:102428000222044b19889143198019691142fcd181
:082438007047c046002400407b
:020000040000fa
:10244000012310b5034c237000f046f82378012bcc
:08245000fcd010bd7101002059
:020000040000fa
:102458008223db0519002022fc314a6000224a61f0
:082468004621ff315a54704770
:020000040000fa
:1024700070b504004518ac4200d170bdfff768ff8d
:0624800020700134f7e7b3
:020000040000fa
:02248600fee76f
:020000040000fa
:102488000822034b986119691142fcd17047c04674
:0424980000240040dc
:020000040000fa
:10249c002022034b186219691142fcd17047c046c7
:0424ac0000240040c8
:020000040000fa
:1024b000012210b5024b14201a7000f04ff810bd25
:0424c0006701002090
:020000040000fa
:1024c4008021034a090213880b4313807047c046d6
:0424d4005e01002085
:020000040000fa
:1024d80010b5034b012118701800fff79bfc10bdc5
:0424e800700100205f
:020000040000fa
:1024ec00c6010020a4010020e1010020be01002053
:0424fc00900100202b
:020000040000fa
:1025000029250000d7230000e9250000e925000067
:04251000e9250000b9
:020000040000fa
:1025140003b47146490840004900095a49008e44f1
:0425240003bc70473d
:020000040000fa
:102528008a18914201d10020704700230b700131b5
:02253800f7e7c3
:020000040000fa
:02253a007047e8
:020000040000fa
:10253c008423024adb051a627047c04665c200005c
:020000040000fa
:10254c00024b9a680c234343d05c70477401002003
:020000040000fa
:10255c00024b1a88801818807047c046640100200e
:020000040000fa
:0c256c008422014b5a607047004000417f
:020000040000fa
:0c257800014b1860996070470c010020b6
:020000040000fa
:0c258400014bd8601961704798000020de
:020000040000fa
:0c259000014b58629962704798000020cf
:020000040000fa
:0c259c000122014b1a70704768010020fa
:020000040000fa
:0c25a80010b5fef717fbfef723fb10bd7b
:020000040000fa
:0a25b400823843425841c0b270471c
:020000040000fa
:0a25be000a000800030008000300f3
:020000040000fa
:0825c80010b5fff771ff10bd13
:020000040000fa
:0825d00024010020f8000020a6
:020000040000fa
:0825d800111f0000992300000f
:020000040000fa
:0425e00009001100dd
:020000040000fa
:0425e40009001100d9
:020000040000fa
:0425e8000020704718
:020000040000fa
:0225ec00704736
:020000040000fa
:0200000400807a
:04400000ff88feb384
:020000040000fa
:0200000400807a
:04400400bbfcffff03
:00000001FF
